:1078000013E0A0E0B1E001C01D92A23AB107E1F798
:1078100094B79093000114BE8091600088618093BA
:1078200060001092600091FD05C0E0910101F091AF
:107830000201099511248FEF98E09EBF8DBF5CD2A5
:10784000F9D088E080936000FFCF8EBD0DB407FEB5
:10785000FDCF0895CF93DF938FEFF7DF4198CEE010
:10786000D1E08991F2DF81E0C431D807D1F7CFEFC1
:107870008FEFEBDF8EB587FF02C0C150C9F7DF91F4
:10788000CF910895CF93DF93660F771F881F991FBD
:1078900021E520930E0180930F01709310016093F6
:1078A00011011092120180E58CBDD4DF882319F0FC
:1078B000419A83E019C0CFEF8FEFC7DF8EB58E3FBF
:1078C00019F0C150C9F7F4CFCEE1D1E08FEFBDDFA1
:1078D0008EB5899383E0CE31D807C1F78FEFB5DF3E
:1078E0008FEFB3DF419A80E0DF91CF910895A0E060
:1078F000B0E0ECE7FCE320C300911C0110911D01F6
:1079000083E00E31180708F45DC0E0901401F09098
:107910001501C0911601D0911701A0900901BA2C50
:10792000BA94BC22A6948A2D6E0103C0D694C79443
:1079300086958111FBCF8FEF19C08F2C9924881564
:1079400051F06091070170910801680D791D80E088
:1079500090E098DF882DF701FF27EE0FFF1FE25E12
:10796000FE4FE080F18091E0C91AD108C114D10422
:1079700021F7670182E0C81AD108E12CF12C05C07B
:10798000CC0CDD1CEE1CFF1CA694A110F9CF60915D
:107990000A0170910B0180910C0190910D016B0D0A
:1079A000711D811D911D6C0D7D1D8E1D9F1D6ADF3A
:1079B0002196D0931701C0931601125010931D0108
:1079C00000931C018091180190911901A0911A0156
:1079D000B0911B010197A109B109809318019093FF
:1079E0001901A0931A01B0931B01E0911C01F091C1
:1079F0001D018191F0931D01E0931C01CDB7DEB70D
:107A0000ECE0B6C2813610F087550895813410F04D
:107A100087530895803308F080530895CF9367DF2C
:107A2000F1DFC82F64DFEEDF90E1C99F800D1124E4
:107A3000CF910895A0E0B0E0EFE1FDE378C22A9A8B
:107A400084B18C6284B9399A83E58CBDCAE08FEF2A
:107A5000FCDEC150E1F780E480930E0110920F012B
:107A600010921001109211011092120185E9809379
:107A70001301C0E1EFDED82F419A8FEFE6DED1305F
:107A800009F411C1C150B1F71CC1419A8FEFDDDE7D
:107A9000E1DE8111FACF0BC180915801863329F4C0
:107AA000109208011092070117C06091E4027091D2
:107AB000E5028091E6029091E702709308016093DD
:107AC0000701E0DE80915401863409F0FAC080910C
:107AD0005801863309F0F5C080912B01809309018C
:107AE00080912C0190912D01209107013091080186
:107AF000820F931F909308018093070140912E01FC
:107B00002091340130913501429F2001439F500C58
:107B10001124480E591E50920401409203012091F5
:107B20002F013091300174E0369527957A95E1F771
:107B30003093060120930501C201820F931FA0E03C
:107B4000B0E080930A0190930B01A0930C01B093D5
:107B50000D01612C712C812C912C5401C501B401B3
:107B6000640D751D861D971D8DDECEE1D1E0E12CE3
:107B7000F12C8A8D9B8D009709F47AC090931501A2
:107B8000809314018C8D9D8DAE8DBF8D80931801D7
:107B900090931901A0931A01B0931B011092170141
:107BA000109216018EE193E090931D0180931C01C9
:107BB000FE018FEF93E0F999FECF92BD81BDF89A57
:107BC00020B52F3F41F03191231352C00197873FD9
:107BD00023E0920781F7F701E25EFE4F808588344B
:107BE00009F046C08185853409F042C08285883518
:107BF00009F03EC0C12CD12C02E213E0312C29C087
:107C0000332089F00BDFF80181938F013A94F3E080
:107C1000023A1F07F1F4C6015ED120E8C20ED11C62
:107C200002E213E016C063DE8A3399F4F7DE382EE1
:107C300080911C0190911D01049690931D018093E9
:107C40001C01ECDE882329F083E00232180771F46E
:107C50000FC08091180190911901A0911A01B09163
:107C60001B01892B8A2B8B2B59F6EECFC60133D102
:107C700090E2E90EF11CA096E114E2E0FE0609F0A4
:107C800078CF8091050190910601019790930601AC
:107C900080930501FFEF8F1A9F0AAF0ABF0A892B55
:107CA00009F05CCF0EC081E480930E01F1CE60E05C
:107CB00070E0CB01E7DD80915401863409F0F5CE08
:107CC000EBCECDB7DEB7E1E14EC19091C00095FF9C
:107CD000FCCF8093C600089582EE95EFA5E0B0E05A
:107CE00004C00197A109B10921F02091C00027FF2C
:107CF000F8CF8091C6000895A0E0B0E0E1E8FEE38F
:107D00001FC182E08093C00087E28093C40010927C
:107D1000C50088E18093C10086E08093C20050983E
:107D2000589AC0E0D0E010E001C011E0D5DF082F84
:107D30008033B1F1112309F4C6C0813509F4C3C001
:107D4000813459F1853531F1863509F1853741F1B5
:107D5000843649F0843739F0823411F1853401F1E9
:107D6000803519F71DC0B8DF80931F03B5DF8093FE
:107D70001E03B2DF21E0853409F020E020932003C8
:107D8000043671F420911E0330911F030BC024E0D0
:107D900030E008C022E030E005C021E030E002C061
:107DA00020E030E092E2C92E93E0D92E7601E20E77
:107DB000F31E04C091DFF60181936F01CE14DF043E
:107DC000C9F78ADF8032E9F784E17FDF013491F47B
:107DD00080912203803811F482E026C0813811F4AA
:107DE00081E022C0823811F480E11EC08839D9F4C4
:107DF00083E01AC0053539F4C0912203D0912303E2
:107E0000CC0FDD1F5DC0063589F4809122038033DD
:107E100051F480912403811102C08EE105C08130AC
:107E200059F485E901C080E050DF4AC0053731F4DC
:107E30008EE14BDF85E949DF8FE0F6CF043609F5A7
:107E4000809120038823D1F0CE010CC0F999FECF98
:107E500092BD81BDF0E0EE5DFC4F208120BDFA9A1D
:107E6000F99A0196E82FEC1B4E2F50E020911E034B
:107E700030911F034217530748F322C0CE012BD085
:107E80001FC00437E9F410C080912003882339F023
:107E9000F999FECFF2BDE1BDF89A80B501C0849199
:107EA00014DF0F5F1F4F02C000E010E0F801EC0F7D
:107EB000FD1F80911E0390911F030817190720F3DF
:107EC00080E103DF32CF84E100DF80E1FEDECDB769
:107ED000DEB7E8E051C0F999FECF23E0FC01209322
:107EE0005700E89507B600FCFDCFA2E2B3E020E022
:107EF00030E061E04D915D91F901E80FF91F0A0151
:107F000060935700E89511242E5F3F4F20383105CC
:107F100089F725E0FC0120935700E89507B600FC9F
:107F2000FDCF81E180935700E89508952F923F920D
:107F30004F925F926F927F928F929F92AF92BF9279
:107F4000CF92DF92EF92FF920F931F93CF93DF9325
:107F5000CDB7DEB7CA1BDB0B0FB6F894DEBF0FBE82
:107F6000CDBF09942A88398848885F846E847D84CF
:107F70008C849B84AA84B984C884DF80EE80FD80D1
:107F80000C811B81AA81B981CE0FD11D0FB6F89447
:0A7F9000DEBF0FBECDBFED01089566
:040000030000780081
:00000001FF
