:107000000C9434380C9451380C9451380C945138F9
:107010000C9451380C9451380C9451380C945138CC
:107020000C9451380C9451380C9451380C945138BC
:107030000C9451380C9451380C9451380C945138AC
:107040000C9451380C9451380C9451380C9451389C
:107050000C9451380C9451380C9451380C9451388C
:107060000C9451380C94513811241FBECFEFD8E046
:10707000DEBFCDBF11E0A0E0B1E0E6EAFFE702C06D
:1070800005900D92AA31B107D9F721E0AAE1B1E04C
:1070900001C01D92A73CB207E1F70E94113F0C947A
:1070A000D13F0C940038CF92DF92EF92FF921F9362
:1070B000CF93DF9300D0CDB7DEB70E94B93EC12C8D
:1070C000D12C76011FEF40E850E06FEF70E087E4CD
:1070D00091E00E94B43FAE014F5F5F4F60E870E007
:1070E00087E491E00E94BC3C89819A810097D1F0AD
:1070F000582F20E030E006C0F0E0E95BFE4F10833F
:107100002F5F3F4F422FE22FE50F480F47FFF4CF8D
:10711000C701B6010E94E53E47E451E0C701B60150
:107120000E94F33E80E8C80ED11CE11CF11CC11482
:1071300080E7D806E104F10431F60E94BB3E0F90CF
:107140000F90DF91CF911F91FF90EF90DF90CF9044
:107150000895A0E0B0E0EFEAF8E30C94793F0E94D4
:10716000BD3E8DE191E00E94383A8DEF93E00E94A0
:10717000BB3F8C01883E43E0940710F009E010E02B
:10718000E8012A96B12C84E6E82EF12C9AE0A92E8B
:107190002AE0C22ED12C21C0CE01B7010E94303F7F
:1071A000605D609312016A2D0E94243F805D809390
:1071B0001301CE01B6010E94303F805D809314011F
:1071C0008DE091E00E94523B892B21F40E945338BC
:1071D000BB24B3940E94C13E21970C171D07E0F217
:1071E000B11008C080E091E00E94523B892B11F45D
:1071F0000E94533880E090E0FC01259134912F3FAC
:107200003F4F11F0FC010995CDB7DEB7EAE00C94D1
:10721000953F0F931F939B01AC01E0911A01F091F0
:107220001B01225031094109510986819781A085AE
:10723000B1850297A109B109281739074A075B07E9
:1072400078F4A281B0E00E94663F8B019C018289A4
:107250009389A489B589080F191F2A1F3B1F03C0F2
:1072600000E010E09801B801C9011F910F91089545
:107270000F931F93CF93DF93EC01E0911A01F091EC
:107280001B01198218826C817D818E819F81613002
:1072900071058105910561F1068117812085318590
:1072A000601771078207930718F56115710581054D
:1072B000910539F42081233021F466857785808912
:1072C0009189688779878A879B8761157105810510
:1072D000910519F00E94093904C066857785808977
:1072E00091896C877D878E879F8720E030E002C080
:1072F00021E030E0C901DF91CF911F910F910895F6
:10730000A4E0B0E0E6E8F9E30C947F3FE0911A01D5
:10731000F0911B01623071058105910508F45CC094
:1073200006811781208531856017710782079307D1
:1073300008F052C02081223021F0233009F04CC0E7
:1073400021C08B019C011127222733279801220F8E
:10735000331F472F582F692F772782859385A48560
:10736000B585480F591F6A1F7B1F02E010E0CE0150
:1073700001960E94673E892B79F509811A8120E0E8
:1073800030E02EC08B019C010F7711272227332775
:107390009801220F331F220F331FAB01BC01A7E05E
:1073A0007695679557954795AA95D1F782859385E8
:1073B000A485B585480F591F6A1F7B1F04E010E0A4
:1073C000CE0101960E94673E892B31F409811A8112
:1073D0002B813C813F7004C001E010E020E030E0F0
:1073E000B801C9012496E4E00C949B3FA0E0B0E012
:1073F000ECEFF9E30C947B3FEC016A017B0102E0C6
:1074000010E02EEF31E00E94673E892B39F588812C
:10741000998185359A4A21F526E330E0B701A60126
:10742000CE010E94673E892B29F488819981863498
:107430009144C1F002E010E022E530E0B701A6017E
:10744000CE010E94673E892B39F481E02881398181
:107450002634314441F406C081E005C083E003C016
:1074600082E001C080E0CDB7DEB7E8E00C94973F42
:107470004F925F926F927F929F92AF92BF92CF9204
:10748000DF92EF92FF920F931F93CF93DF93CDB7CD
:10749000DEB7A8970FB6F894DEBF0FBECDBF5C0174
:1074A00010921B0110921A01009709F4DFC00E948C
:1074B000C03D80FDDEC040E050E0BA01CE01019643
:1074C0000E94F639813009F500E110E02EEB31E041
:1074D00040E050E0BA01CE0101960E94673E892B40
:1074E00019F021E030E0C7C08D81811103C027E091
:1074F00030E0C1C049845A846B847C84B301A2010A
:10750000CE0101960E94F63903C0412C512C320164
:10751000833039F38111EBCF04E210E02DE030E04D
:10752000B301A201CE0101960E94673E892BC9F6E4
:107530002A853B8540E050E0211531054105510584
:1075400021F4288D398D4A8D5B8DAC81B0E00E948D
:10755000663F6B017C018A819B81A0E0B0E0480E10
:10756000591E6A1E7B1EF501428653866486758607
:10757000998092822D813E81358324836F81788525
:10758000AB0160E070E0411551056105710521F422
:107590004C895D896E897F89F90104E0F695E7954C
:1075A0000A95E1F78F0120E030E00DA31EA32FA381
:1075B00038A78A019B01081B190B2A0B3B0BC90139
:1075C000B8016C197D098E099F090DA11EA12FA17B
:1075D00038A5601B710B820B930B292D30E040E026
:1075E00050E00E94443F2E5F3F4F4F4F5F4FD50109
:1075F00016962D933D934D935C931997273FBFE0CB
:107600003B074105510508F472CF273F3F4F410525
:10761000510510F482E001C083E0D5018C938330E2
:1076200029F488A199A1AAA1BBA106C0D701C601CE
:10763000840D951DA61DB71DF50186879787A08B24
:10764000B18B0DA11EA12FA138A5400E511E621EA7
:10765000731E4C0C5D1C6E1C7F1C428A538A648A0C
:10766000758A1182B0921B01A0921A0120E030E0CD
:1076700002C022E030E0C901A8960FB6F894DEBF40
:107680000FBECDBFDF91CF911F910F91FF90EF9073
:10769000DF90CF90BF90AF909F907F906F905F9062
:1076A0004F900895ACE3B0E0E8E5FBE30C94763F3F
:1076B000C0901A01D0901B01C114D10409F436C145
:1076C000D60111961C929E012F5C3F4F3CA32BA329
:1076D0009C017901F90180812F5F3F4F8032C9F30E
:1076E0008F3209F479011DA21EA21FA218A6D7018C
:1076F0008C91813250F4CE0181960E9438399C01E0
:107700001982009709F4E7C032C1A0E27A2E4E0137
:10771000BCE08B0E911CEBA1FCA1CF010B96DF010D
:1077200001C07D92A817B907E1F790E020E038E0AA
:10773000D701A20FB11D8C912F5F813290F08F3253
:1077400081F08E3209F4F8C0931758F4482F41564F
:107750004A3108F48052DF01A90FB11D8C939F5F5D
:10776000E7CFE20EF11C91E0813208F090E09387C0
:10777000CE0181960E9438399C01009709F0EEC035
:1077800029A13AA12F703327F5E0220F331FFA9574
:10779000E1F74DA55EA56FA578A900E210E0CE0146
:1077A00001960E94673E892B09F0DCC089818823FD
:1077B00009F474C02C8523FD0FC06BA17CA1FE01D0
:1077C0003196CB01E815F90509F4C2C04191DC01FD
:1077D0003D91CD014317B1F3A0901A01B0901B0168
:1077E00009A11AA10F5F1F4F09F4ACC08DA59EA57A
:1077F000AFA5B8A90097A105B10509F4A3C09801E8
:107800002F703327232B09F046C00196A11DB11D0F
:107810008DA79EA7AFA7B8AB69A57AA58BA59CA598
:10782000611571058105910541F4F501848195810A
:107830000817190708F086C02EC0D50112962C91A2
:10784000422F50E0415051099801E4E036952795C8
:10785000EA95E1F742235323452BE9F40E9480394E
:10786000623071058105910508F46FC0F50126812C
:10787000378140855185621773078407950708F0A3
:1078800061C069A77AA78BA79CA70E9409396DA739
:107890007EA78FA798AB1AA309A372CFEBA1FCA177
:1078A0008385882309F461C044C024FF5EC08D89AC
:1078B0009E89A0E0B0E0DC01992788274B8D5C8D84
:1078C00060E070E0842B952BA62BB72B8DA39EA395
:1078D000AFA3B8A720CF8981882359F18C8584FD77
:1078E00028C08D899E89A0E0B0E0DC019927882717
:1078F0004B8D5C8D60E070E0842B952BA62BB72B15
:10790000F601868F978FA0A3B1A38D8D9E8DAF8D2D
:10791000B8A1828F938FA48FB58F168A178A108E85
:10792000118E81E0818320E030E021C026E030E04C
:107930001EC023E030E01BC0383009F012CF98E0C1
:107940003BE0F6CE23E030E009C021E030E006C0A5
:10795000FB018385882309F4A8CFBDCF23303105EF
:1079600031F49CCF21E030E002C024E030E0C901D6
:10797000EC96EDE00C94923FA0E0B0E0E2ECFCE38A
:107980000C94733F4C017B015A01C0911A01D091B4
:107990001B01FA0111821082209709F4A9C0898184
:1079A00080FFA9C08A8D9B8DAC8DBD8D4E895F896E
:1079B000688D798D841B950BA60BB70BA70160E032
:1079C00070E084179507A607B70708F47C01340117
:1079D000412C32E0532E81C08E899F89A88DB98DAC
:1079E000AC01BD01517066277727452B462B472BED
:1079F000E1F5AC01BD0129E076956795579547956E
:107A00002A95D1F7DA80DA94D422C9F4892B8A2B0B
:107A10008B2B29F46E8D7F8D88A199A106C06AA158
:107A20007BA18CA19DA10E948039623071058105E6
:107A3000910508F459C06AA37BA38CA39DA36AA1F6
:107A40007BA18CA19DA10E94093961157105810559
:107A5000910509F449C0DC01CB018D0D911DA11DDB
:107A6000B11D8EA39FA3A8A7B9A78E899F89A88DB2
:107A7000B98D9170AA27BB279201281B390B67018A
:107A80002E153F0508F469014EA15FA168A579A5EF
:107A90008114910419F4E0E0F0E001C0F3018601E3
:107AA0009C01CF010E94673E892BF1F48E899F894A
:107AB000A88DB98D8C0D9D1DA11DB11D8E8B9F8B29
:107AC000A88FB98F6C0C7D1CEC18FD08F501808126
:107AD00091818C0D9D1D91838083E114F10409F047
:107AE0007BCF20E030E009C0198221E030E005C002
:107AF00026E030E002C025E030E0C901CDB7DEB7B6
:107B0000E0E10C948F3FFF920F931F93CF93DF938D
:107B1000C82FD42F152F062FF72E87FF09C040E05E
:107B200050E0BA0187E70E94833D823020F5CF778D
:107B30000E94D33E8C2F0E94D83E8F2D0E94D83EAB
:107B4000802F0E94D83E812F0E94D83E8D2F0E9408
:107B5000D83EC03421F0C83421F081E003C085E96B
:107B600001C087E80E94D83ECAE00E94D73E87FF46
:107B700002C0C150D1F7CDB7DEB7E5E00C949A3F13
:107B8000A4E0B0E0E6ECFDE30C947B3F0E94C63E2F
:107B900014E60E94CB3E1150E1F71AE00E94D63E57
:107BA0001150E1F740E050E0BA0180E40E94833DCB
:107BB000813009F06AC04AEA51E060E070E088E490
:107BC0000E94833D8130E1F58E010F5F1F4F6E01F2
:107BD00085E0C80ED11C78010E94D73EF701819341
:107BE0007F01EC15FD05C1F78B81813009F04DC097
:107BF0008C818A3A09F049C007C00E94CB3EF1E06F
:107C0000EF1AF10829F441C050E1E52E57E2F52EB4
:107C100040E050E060E070E489EE0E94833D811115
:107C2000ECCF3DC00E94D73EF80181938F01EC1547
:107C3000FD05C1F7898186FF25C04CE0F42E26C0E2
:107C400040E050E0BA0189EE0E94833D823028F482
:107C500022E0F22E39EEE32E04C0FF24F39491E4E7
:107C6000E92E00E117E205C00E94CB3E0150110948
:107C700061F040E050E0BA018E2D0E94833D8111F9
:107C8000F3CF17C084E0F82E01C0F12CF0921C0154
:107C90000E94D63E81E0FF20B1F080E014C040E0B9
:107CA00050E0BA018AE70E94833D882309F4BACFE5
:107CB000ECCF40E052E060E070E080E50E94833D60
:107CC0008111E3CFE3CF2496E8E00C94973FA0E046
:107CD000B0E0EDE6FEE30C947B3F7C01E90180918E
:107CE0001C0183FD07C0E9E0440F551F661F771F85
:107CF000EA95D1F781E50E94833D882319F0C1E020
:107D0000D0E02CC070E4C72E7CE9D72E0E94D73E6D
:107D10008F3F29F481E0C81AD108C1F7F0CF8E3F18
:107D200071F762E0C62EDC2CCC1ADD0AC01AD10A2B
:107D3000209721F00E94D73E2197FACF0E94D73E8C
:107D4000F70181937F0101501109C1F70E94D73ECD
:107D5000F1E0CF1AD108D1F7C0E0D0E00E94D63EC2
:107D6000CE01CDB7DEB7E8E00C94973F569A579A0C
:107D700008955E9A08955E9808955F9A08955F98B1
:107D800008955F9B0C94BD3E0C94BF3E229A239AAB
:107D9000259A2C9A089580EA3197319731970000FF
:107DA0008A95D1F7089502D02A9801C02A9A8FEFB8
:107DB00098E087FD2B9A87FF2B98880F1C99839555
:107DC0002D9A2D989A95A9F70895FB0183E0809349
:107DD0005700E8958091570080FDFCCF81E18093AA
:107DE0005700E89508950F921F92FB01DA0190E485
:107DF0000D901D9081E080935700E89532969A95FA
:107E0000B9F7FB0185E080935700E8958091570012
:107E100080FDFCCF81E180935700E8951F900F9083
:107E200008950E94B63E0E94A938CBE00E94C13E50
:107E30002FEF81EE94E0215080409040E1F700C0A8
:107E40000000C15099F7EFCF991B79E004C0991F4A
:107E5000961708F0961B881F7A95C9F780950895A4
:107E6000AA1BBB1B51E107C0AA1FBB1FA617B70760
:107E700010F0A61BB70B881F991F5A95A9F780957C
:107E80009095BC01CD010895A1E21A2EAA1BBB1B3F
:107E9000FD010DC0AA1FBB1FEE1FFF1FA217B307D6
:107EA000E407F50720F0A21BB30BE40BF50B661FEC
:107EB000771F881F991F1A9469F7609570958095B0
:107EC00090959B01AC01BD01CF0108950E94A83F90
:107ED000A59F900DB49F900DA49F800D911D11241E
:107EE00008952F923F924F925F926F927F928F925E
:107EF0009F92AF92BF92CF92DF92EF92FF920F9339
:107F00001F93CF93DF93CDB7DEB7CA1BDB0B0FB642
:107F1000F894DEBF0FBECDBF09942A8839884888FF
:107F20005F846E847D848C849B84AA84B984C88495
:107F3000DF80EE80FD800C811B81AA81B981CE0F8C
:107F4000D11D0FB6F894DEBF0FBECDBFED01089571
:107F5000A29FB001B39FC001A39F01D0B29F700D3B
:107F6000811D1124911D0895DC0101C06D934150C4
:107F70005040E0F70895A8E1B0E042E050E00C94F2
:107F8000C33FDC01CB01FC01F999FECF06C0F2BD75
:107F9000E1BDF89A319600B40D9241505040B8F7C7
:067FA0000895F894FFCFE4
:107FA6004F534D4649524D572E42494E004F534D61
:0A7FB60046577878782E42494E00B5
:040000030000700089
:00000001FF
