:200000000C94EF000C9417010C9417010C9417010C9417010C9417010C9417010C94170149
:200020000C9417010C9417010C94CE140C9447140C947D150C9417010C9417010C94170179
:200040000C9461290C9417010C944A2B0C94D42B0C9417010C9417010C9417010C9417012A
:200060000C94840F0C941701253032643A253032643A253032642E253033753B00504F5308
:200080004D534B2C00504F534D534F2C53746F70204E4D4541204C6F6767657200504F53E3
:2000A0004D53542C5374617274204E4D4541204C6F676765722C5620302E312E313200642B
:2000C000617461303030302E64617400504F534D534F2C526561736F6E3A2074696D6573D2
:2000E00020757000504F534D534F2C526561736F6E3A2073746F7020737769746368005064
:200100004F534D534F2C526561736F6E3A20737570706C79206C6F7700504F534D4143433B
:200120002C25692C25692C256900504F534D4759522C25692C25692C256900504F534D569D
:2001400043432C25692C256900636F6E6669672E646174005620302E312E3132006F7365EB
:20016000616D6C6F672E636E66007C3C3E5E2B3D3F2F5B5D3B2C2A225C00000000002400F5
:2001800027002A0000000000250028002B0000000000230026002900040404040404040404
:2001A0000202020202020303030303030102040810204080010204081020010204081020A4
:2001C00000000007000201000003040600000000000000003805200E6516FE2E310511248B
:2001E0001FBECFEFD8E0DEBFCDBF11E0A0E0B1E0E8E6F4E602C005900D92A236B107D9F783
:2002000017E0A2E6B1E001C01D92AF36B107E1F711E0CCEDD1E004C02297FE010E94E1315E
:20022000C43DD107C9F70E943C2F0C9427320C940000A0E0B0E0EFE1F1E00C94F131EC011F
:200240002B016A016115710519F0FB0191838083C114D10449F0C6010297839728F020E08A
:2002600030E040E050E0DCC0A9908A2D90E00E94E531892BC9F7FDE2AF1621F4A9903324AD
:20028000339405C08BE2A81609F4A9903324C114D10421F0E0E1CE16D10411F5F0E3AF1647
:2002A00069F48881883711F0883541F4A980229682E0382A20E1C22ED12C12C0C114D10417
:2002C00079F4E0E3AE1659F199E9E92E99E9F92E99E9092F99E1192F8AE0C82ED12C3AC0CB
:2002E000FAE0CF16D10491F080E1C816D10429F0E8E0CE16D104F9F415C0BFEFEB2EBFEF04
:20030000FB2EBFEF0B2FBFE01B2F24C0A9E9EA2EA9E9FA2EA9E90A2FA9E11A2F1BC0F8E04A
:20032000CF2ED12CEFEFEE2EEFEFFE2EEFEF0E2FEFE11E2F0FC09601442737FD4095542F2A
:200340006FEF7FEF8FEF9FEF0E94A231C901DA017C018D0120E030E040E050E060E03601C9
:20036000882477FC8094982C70EDB72EBA0CF9E0FB1570F48A2D81548A3118F499ECB92E72
:2003800006C08A2D81568A3148F589EAB82EBA0C8B2D90E08C159D050CF56F3FE9F0E21607
:2003A000F30604071507B8F0CA01B901A40193010E945C319B01AC018B2D90E0A0E0B0E007
:2003C000280F391F4A1F5B1F281739074A075B0710F061E001C06FEFA990C6CF41145104A1
:2003E00051F0662311F0219703C031FE04C02297F201D183C08330FE07C05095409530950D
:2004000021953F4F4F4F5F4F67FF0AC082E290E090936E0780936D072FEF3FEF4FEF5FEF51
:20042000B901CA01CDB7DEB7E1E10C940D32FB01DC0105900D920020E1F70895FB01DC0102
:2004400004C08D910190801921F441505040C8F7881B990B0895FB01DC0102C001900D92EC
:2004600041505040D8F70895FB01DC0101900D920020E1F70895AEE0B0E0E1E4F2E00C94FC
:20048000FE310D891E898EE08C831A8309838FEF9FE79E838D839E01275E3F4FCE010196FD
:2004A0006F89788DA9010E945F022F813885020F131FF80110822E96E4E00C941A32ABE058
:2004C000B0E0E5E6F2E00C94F0313C012B015A01FC0117821682838181FD03C06FEF7FEF2B
:2004E000C6C19AE0892E1E010894211C311CF3012381F20123FD859123FF81912F0188232F
:2005000009F4B2C1853239F423FD859123FF81912F01853229F490E0B3010E945204E7CF47
:20052000982FFF24EE249924FFE1FF15D0F09B3269F09C3228F4903259F0933291F40EC01B
:200540009D3249F0903369F441E024C052E0F52A84E0F82A28C098E0F92A25C0E0E1FE2A46
:2005600022C0F7FC29C0892F80538A3070F4F6FE05C0989C902C1124980E15C0E89CE02C2B
:200580001124E80EF0E2FF2A0EC09E3229F4F6FC6BC140E4F42A07C09C3619F450E8F52A1D
:2005A00002C0983649F4F20123FD959123FF91912F01992309F0B8CF892F8554833018F039
:2005C0008052833038F444E050E0A40EB51E5FE359830FC0933631F0933779F0933509F0C6
:2005E00056C020C0F5018081898342E050E0A40EB51E610101E010E012C0F501C080D1809F
:20060000F6FC03C06FEF7FEF02C0692D70E042E050E0A40EB51EC6010E9447048C015FE753
:20062000F52214C0F501C080D180F6FC03C06FEF7FEF02C0692D70E042E050E0A40EB51E48
:20064000C6010E943C048C0150E8F52AF3FE07C01AC080E290E0B3010E945204EA948E2DC4
:2006600090E008171907A8F30EC0F601F7FC8591F7FE81916F0190E0B3010E945204E110DE
:20068000EA94015010400115110579F7EAC0943611F0993669F5F7FE08C0F50120813181F7
:2006A0004281538184E090E00AC0F501808191819C01442737FD4095542F82E090E0A80EE0
:2006C000B91E9FE6F92257FF09C050954095309521953F4F4F4F5F4FE0E8FE2ACA01B90100
:2006E000A1012AE030E00E947E04D82ED21840C0953729F41F2D1F7E2AE030E01DC01F2D15
:20070000197F9F3661F0903720F4983509F0ACC00FC0903739F0983709F0A6C004C028E055
:2007200030E00AC0106114FD146020E130E004C014FD166020E132E017FF08C0F5016081C5
:2007400071818281938144E050E008C0F50180819181BC0180E090E042E050E0A40EB51E07
:20076000A1010E947E04D82ED2188FE7F82EF122F6FE0BC05EEFF522D91438F4F4FE07C01F
:20078000F2FC05C08FEEF82202C01D2D01C0192DF4FE0DC0FE01ED0DF11D8081803319F475
:2007A00099EEF92208C01F5FF2FE05C003C08F2D867809F01F5F0F2DF3FC14C0F0FE0FC0EC
:2007C0001E1510F09D2C0BC09D2C9E0C911A1E2D06C080E290E0B3010E9452041F5F1E15F4
:2007E000C0F304C01E1510F4E11A01C0EE2404FF0FC080E390E0B3010E94520402FF1DC04E
:2008000001FD03C088E790E00EC088E590E00BC0802F867891F001FF02C08BE201C080E242
:20082000F7FC8DE290E0B3010E94520406C080E390E0B3010E9452049A94D914C0F3DA94B9
:20084000F101ED0DF11D808190E0B3010E945204DD20A9F706C080E290E0B3010E945204A0
:20086000EA94EE20C1F743CEF30166817781CB012B96E2E10C940C32FC010590615070402F
:200880000110D8F7809590958E0F9F1F0895FC016150704001900110D8F7809590958E0FA0
:2008A0009F1F08950F931F93CF93DF938C01EB018B8181FF1BC082FF0DC02E813F818C810B
:2008C0009D812817390764F4E881F9810193F983E88306C0E885F985802F0995892B31F4EE
:2008E0008E819F8101969F838E8302C00FEF1FEFC801DF91CF911F910F910895FA01AA27DF
:20090000283051F1203181F1E8946F936E7F6E5F7F4F8F4F9F4FAF4FB1E03ED0B4E03CD06B
:20092000670F781F891F9A1FA11D680F791F8A1F911DA11D6A0F711D811D911DA11D20D066
:2009400009F468943F912AE0269F11243019305D3193DEF6CF010895462F4770405D419352
:20096000B3E00FD0C9F7F6CF462F4F70405D4A3318F0495D31FD4052419302D0A9F7EACFC5
:20098000B4E0A6959795879577956795BA95C9F700976105710508959B01AC010A2E0694FE
:2009A0005795479537952795BA95C9F7620F731F841F951FA01D08958130910509F03FC0E5
:2009C0006F5F7F4F09F04CC08DE093E060E071E00E943C3189E1809363011092660110926A
:2009E0007901109280011092820110929E011092A00110929D0110929C018AE491E0909330
:200A00009B0180939A011092BD011092BC0188EE93E0A0E0B0E08093BE019093BF01A093EC
:200A2000C001B093C10182E391E09093BB018093BA0187EC91E068E60E94FD120895892B39
:200A400079F46F5F7F4F61F482E391E09093BB018093BA010E94F1138DE093E00E94553107
:200A6000089580E090E06FEF7FEF0E94DC04089581E090E06FEF7FEF0E94DC0408951F93B0
:200A8000CF93DF93EC010E94A9296093F8017093F9018093FA019093FB015E9ADE010D9097
:200AA0000020E9F71197AC1BBD0B10E090E005C0EC0FFD1F808118279F5FE92FF0E0EA179C
:200AC000FB07B0F38091A0018823E9F08AE991E064E20E940A228AE991E0BE010E94BD3011
:200AE0008AE991E06AE20E940A22103128F48AE991E060E30E940A228AE991E0612F40E111
:200B000050E00E944030DF91CF911F910895682F8091A001882349F08AE991E00E94752F1F
:200B20008AE991E06BE30E94752F08956F927F928F929F92AF92BF92CF92DF92EF92FF92C6
:200B40000F931F933B014C018091A001882309F45CC0C401B30128EE33E040E050E00E94AE
:200B6000A23169017A018DB79EB70C970FB6F8949EBF0FBE8DBF0DB71EB70F5F1F4F88EFCE
:200B8000A82E82E0B82EEDB7FEB7B282A18288E690E0F80193838283C90160E17EE00E948A
:200BA0007B31CB0168E170E00E947B3184831582C6016CE370E00E947B31CB016CE370E019
:200BC0000E947B3186831782C6016CE370E00E947B3180871186C401B30128EE33E040E011
:200BE00050E00E94A231F801738762870E943B028DB79EB70C960FB6F8949EBF0FBE8DBF93
:200C00008AE991E0B5010E94BD301F910F91FF90EF90DF90CF90BF90AF909F908F907F9094
:200C20006F900895FF920F931F93F42E89010E9496058F2D0E948705C8010E943F051F9101
:200C40000F91FF9008950F931F938091B9018823C9F18DB79EB708970FB6F8949EBF0FBE91
:200C60008DBFEDB7FEB7319608EA12E0ADB7BEB712961C930E9311978BE391E093838283B1
:200C80008091F6019091F701958384838091ED019091EE01978386830E943B028DB79EB76A
:200CA00008960FB6F8949EBF0FBE8DBF6091FC017091FD018091FE019091FF0149E49801EB
:200CC0000E9412061F910F9108951F93CF93DF9380910601882309F46EC010920B0311E058
:200CE00057C08091D701882351F40E94A929609304027093050280930602909307025D9A4F
:200D0000CA3019F410930B030CC0CD3051F08091D701E82FF0E0E85AFD4FC0838F5F80936F
:200D2000D70180910B03882321F48091D701803578F18091D701882359F18091A0018823BA
:200D400029F10E94A9296093F8017093F9018093FA019093FB015E9A6091040270910502F8
:200D600080910602909107020E94960582E40E9487054091D7018AE991E068E572E050E003
:200D80000E9423228AE991E00E947D2F1092D7018AEB91E00E94EE151816190664F480917F
:200DA0000B03882341F48AEB91E00E94C415EC01992374F396CFDF91CF911F910895909131
:200DC000D60180910C03981709F04AC088EA92E06DE770E00E94340220E02FC0E22FF0E03A
:200DE000E85FFD4F3081832F82958F708A3018F4982F905D02C0982F995CA8EAB2E0FD01CD
:200E000031968C91882311F0DF01F9CF9C931082E32FEF70EA3018F49E2F905D02C09E2FF9
:200E2000995CA8EAB2E0FD0131968C91882311F0DF01F9CF9C9310822F5F8091D6012817ED
:200E400068F26091000270910102809102029091030241E428EA32E00E9412061092D6018A
:200E600008951F93CF93DF9380910501882309F49BC010920A0311E084C08091D6018823BE
:200E800051F40E94A929609300027093010280930202909303025C9A8091B801882349F1BA
:200EA000D0FF10C00E94DF0610930A031092D6010E94A9296093000270930102809302025D
:200EC000909303029091D601913039F49E012F70822F8D5F80930C0303C0903508F051C076
:200EE000E92FF0E0E85FFD4FC0839F5F9093D60148C0CA3019F410930A030CC0CD3051F073
:200F00008091D601E82FF0E0E85FFD4FC0838F5F8093D60180910A03882321F48091D6018E
:200F2000803578F18091D601882359F18091A001882329F10E94A9296093F8017093F901E2
:200F40008093FA019093FB015E9A609100027091010280910202909103020E94960581E498
:200F60000E9487054091D6018AE991E068E072E050E00E9423228AE991E00E947D2F109232
:200F8000D60184E497E00E94CA2D1816190664F480910A03882341F484E497E00E94222E8E
:200FA000EC01992374F369CFDF91CF911F91089588EA92E065E870E00E9417020E94A9291C
:200FC00049E428EA32E00E9412068091A001882321F08EE991E00E943E1C0895EF92FF9205
:200FE0000F931F938EE480937C0062E070E080E090E00E94F22980917A00806480937A0081
:2010000080917A0086FDFCCF8091780090E0A0E0B0E020917900F22EEE240027F7FC0095E3
:20102000102FE82AF92A0A2B1B2B0E94A9296093FC017093FD018093FE019093FF0160E0E7
:2010400070E381E190E0A80197010E94C431C9011F910F91FF90EF900895AF92BF92CF92DB
:20106000DF92EF92FF920F931F93CF93DF930E94D8078BB18F708BB900EF12C08BB1802721
:201080008BB964EF71E080E090E00E94F2298BB180278BB964EF71E080E090E00E94F22983
:2010A00082E691E06AE044E00E94E221882331F388ED91E06FEB70E00E9417028BB18F70EF
:2010C0008BB9C0910803D0910903219638E1A32E3CEFB32E2CE9C22E2FEFD22E96EFE92E97
:2010E0009FEFF92E6BC08BB180588BB9CE0168EE73E00E947B31262F205D2093DC016A9D89
:20110000F0016B9DF00D7A9DF00D1124EC0FFD1FCF0164E670E00E947B31262F205D20933C
:20112000DD016C9D80016D9D100D7C9D100D11240E0F1F1FC8016AE070E00E947B31262F54
:20114000205D2093DE016E9DC0016F9D900D7E9D900D1124800F911F805D8093DF0182E6A7
:2011600091E068ED71E00E94C321882331F587E691E00E9448248B019C0160916B0180E02F
:2011800090E270E00E948F31882777FD8095982F061717072807390760F08EE991E068EDF5
:2011A00071E043E60E949821D0930903C09308030AC081E08093C60106C0219637E2C03101
:2011C000D30708F490CF88EA92E06DE970E00E9417020E94A92949E428EA32E00E94120616
:2011E000DF91CF911F910F91FF90EF90DF90CF90BF90AF9008950F931F930EE911E0C801C3
:201200000E943E1CC80168ED71E047E20E9498211F910F910895CF92DF92EF92FF920F936C
:201220001F9380910701882309F486C00E94A9296B017C0187EC91E060EF71E042EF51E0B2
:2012400024EF31E00E9400138DB79EB70A970FB6F8949EBF0FBE8DBFEDB7FEB7319608EAA2
:2012600012E0ADB7BEB712961C930E9311978AE291E0938382838091F0019091F1019583DE
:2012800084838091F2019091F301978386838091F4019091F501918780870E943B028DB7AC
:2012A0009EB70A960FB6F8949EBF0FBE8DBFC701B60149E498010E94120687EC91E060EF40
:2012C00071E042EF51E024EF31E00E944413ADB7BEB71A970FB6F894BEBF0FBEADBFEDB709
:2012E000FEB7319612961C930E93119789E191E0938382838091F0019091F10195838483A8
:201300008091F2019091F301978386838091F4019091F501918780870E943B028DB79EB7DD
:201320000A960FB6F8949EBF0FBE8DBFC701B60149E498010E9412061F910F91FF90EF90E9
:20134000DF90CF900895EF92FF920F931F930E94A9297B018C018091C601882379F0C8018A
:20136000B70124EF31E040E050E00E94C4316B3F71058105910514F05F9801C05F9A8091A8
:20138000F8019091F901A091FA01B091FB018C599F4FAF4FBF4F8E159F05A007B10708F44F
:2013A0005E988091000290910102A0910202B09103028C509E4FAF4FBF4F8E159F05A007C2
:2013C000B10708F45C988091040290910502A0910602B09107028C509E4FAF4FBF4F8E152B
:2013E0009F05A007B10708F45D980E94EE079093F7018093F6012091ED013091EE01821755
:20140000930730F083E00E94ED2A892B09F095C08BB18F708BB98091A001882309F10E947C
:2014200023062091F6013091F7018091ED019091EE012817390728F488EA92E06FEF70E0E6
:2014400004C088EA92E064EE70E00E9417020E94A92949E428EA32E00E9412060E94D80787
:201460008BB1806F8BB960E177E280E090E00E94F22969C00E942D080E9431070E946506EF
:20148000A8019701285E3340404050408091E5019091E601A091E701B091E801821793078D
:2014A000A407B50708F04FC0E092E501F092E6010093E7011093E8010E940B090E94230675
:2014C000C801B70120E83EEE46E350E00E94C4318091EF0190E082179307A8F488EA92E043
:2014E0006CEC70E00E9417020E94A92949E428EA32E00E9412060E942D088091EF018F5F44
:201500008093EF0120C0C801B70120E63AEE40E050E00E94C431CA01B90120E031E040E09C
:2015200050E00E94C431162F80910703181759F00E94FB081093070306C08091A001882397
:2015400009F09ACF97CF1F910F91FF90EF900895FF920F931F93182F062FF42E88ED91E05F
:201560006DE571E00E94170282E691E068ED71E00E94C321882331F082E691E068ED71E0BD
:201580000E94BF218EE991E068ED71E043E60E9498218091B801882329F08AE991E063E7FB
:2015A0000E94752F8AE991E0612F4AE050E00E9440308AE991E0602F4AE050E00E94403026
:2015C0008AE991E06F2D4AE050E00E94403088ED91E064E571E00E9417028AE991E068EDAB
:2015E00071E00E94C0304091E9015091EA016091EB017091EC018AE991E020E130E00E941F
:201600002C306091ED017091EE018AE991E04AE050E00E949E308EE991E00E943E1C1F915D
:201620000F91FF900895CF92DF92EF92FF920F931F9388ED91E069E471E00E94170288E9F6
:2016400096E060E170E00E943827F82E88E996E061E170E00E943827E82E88E996E062E1A2
:2016600070E00E943827C82E88E996E063E170E00E943827D82EE9EEF1E024E130E0F99952
:20168000FECF32BD21BDF89A80B580832F5F3F4F81E0EC3EF80711F03196F1CF1092B8015D
:2016A00026E02F1510F403E0F02E84E08E1510F413E0E12E25E02C1538F01092B801CC2019
:2016C00019F081E08093B80182E691E068ED71E00E94C321882309F4ECC08EE991E068ED3E
:2016E00071E041E00E949821882309F4E2C0109205011092060101E0C1C08EE991E00E9496
:20170000771D8D3011F08A3029F4112309F40F5F11E0B5C00130C1F5833739F40093B80181
:201720008EE991E00E94771D02C01092B801182F10531F1539F088E996E060E170E0412F7F
:201740000E943F2786E08C1568F020E030E0CC2011F021E030E08091B80190E0281739075B
:2017600009F409C18091B801882331F088E996E062E170E041E005C088E996E062E170E032
:2017800040E00E943F27F7C0023069F4182F10531E1509F4F2C088E996E061E170E0412F66
:2017A0000E943F27EAC0033069F4182F10531D1509F4E5C088E996E063E170E0412F0E94DC
:2017C0003F27DDC0043009F059C01092E9011092EA011092EB011092EC018093D80111E0AD
:2017E0000EC08EE991E00E94771D8D30E9F08A30D9F0E12FF0E0E852FE4F80831F5F20914B
:20180000B0013091B1014091B2015091B3018091A8019091A901A091AA01B091AB012817FE
:2018200039074A075B07E9F6E12FF0E0E852FE4F108288ED91E060E070E040E150E00E9474
:2018400019016093E9017093EA018093EB019093EC01E9EEF1E084E190E02191F999FECF06
:201860001FBA92BD81BD20BD0FB6F894FA9AF99A0FBE019621E0ED3EF20779F710E0209113
:20188000B0013091B1014091B2015091B3018091A8019091A901A091AA01B091AB0128177E
:2018A00039074A075B0709F028CF8EE991E00E943E1CD7FC0FC09D2D1092B901D0FE03C008
:2018C00081E08093B9011092070191FF03C081E0809307018F2D6E2D4D2D0E94A80A85E0D7
:2018E0008F1518F1EF2DF0E0EE0FFF1FE05FFE4F1081018184E497E00E94642DFF20A9F0CB
:20190000812F902F21E0209305012091B801AC0160E070E0222321F084E497E027E003C0F8
:2019200084E497E026E00E94C02C0E94F11323E02E1538F1EE2DF0E0EE0FFF1FE05FFE4F8D
:201940002081318121153105E1F081E08093060140E050E0CA01B901969587957795679558
:2019600060507C4D8B409F4F0E94A231CA01B9010E94FE1506C0F12E81CFE12E7FCFD12EF5
:201980007DCF1F910F91FF90EF90DF90CF90089589E593E00E94C00E87EC91E00E94B11397
:2019A00087EC91E00E94E413882359F087EC91E060E00E949B1387EC91E060E00E94A613C3
:2019C00008955D980895DF92EF92FF920F931F93DF93CF9300D0CDB7DEB7FE0131962DEF62
:2019E00033E0AF014F5F5F4FF999FECF32BD21BDF89A80B580832F5F3F4FE417F50711F0BE
:201A00003196F2CF89819A810C97F9F08CE090E09A83898380E090E09E012F5F3F4FF90103
:201A2000E80FF91FE081F999FECF1FBA83509C4F92BD81BDE0BD0FB6F894FA9AF99A0FBED1
:201A40008C5F93408230910551F71092D6011092D70187E061E00E945A2A86E061E00E942E
:201A60005A2A84E061E00E945A2A85E061E00E945A2A8BB18F708BB982E061E00E945A2A03
:201A80005A9883E062E00E945A2A8AE061E00E945A2A5F9A64EF71E080E090E00E94F2298E
:201AA0005C9A5A9A68EE73E080E090E00E94F2295D9A0E94C80C68EE73E080E090E00E947E
:201AC000F2298BB18F708BB95F9A10C05E9A5A9860E273E080E090E00E94F2295E985A9AAD
:201AE00064EF71E080E090E00E94F22982E691E06AE042E00E94E221882341F35A9A8BB1BC
:201B00008F708BB98BB18F708BB90E94A929605D7A488F4F9F4F6093E5017093E60180936E
:201B2000E7019093E801EE24FF248701DD2417C00E94EE07A0E0B0E0E80EF91E0A1F1B1F05
:201B4000D3945F9A64EF71E080E090E00E94F2295F9864EF71E080E090E00E94F2290E942A
:201B6000A9292091E5013091E6014091E7015091E8016217730784079507D0F22D2D30E08B
:201B800040E050E0C801B7010E94A231285C30403093EE012093ED015F9A5C9A0E94130B09
:201BA0005D9A0E94C80C64EF71E080E090E00E94F2298BB18F708BB90F900F90CF91DF91FA
:201BC0001F910F91FF90EF90DF90089581E08093580360933503109256031092570308950D
:201BE0002091340330E080913303281B3109C90108954091330380913403481718F02FEFEE
:201C00003FEF0AC0E42FF0E0ED5EFC4F8081282F30E04F5F40933303C9010895E091330326
:201C200080913403E81718F0EFEFFFEF06C0F0E0ED5EFC4F8081E82FF0E0CF01089508956B
:201C400010925C0310925B0388EE93E0A0E0B0E080935D0390935E03A0935F03B093600358
:201C600082E291E090935A03809359030895CF92DF92EF92FF920F931F93CF93DF937C017A
:201C80006B018A01809158038823A1F0C0E0D0E00DC0D701ED91FC91D601AC0FBD1F0190A6
:201CA000F081E02DC7016C9109952196C017D10780F304C0CB01642F0E94690FC801DF91F4
:201CC000CF911F910F91FF90EF90DF90CF900895DF93CF930F92CDB7DEB7FC016983809153
:201CE00058038823C9F080915703803238F081E090E09383828320E030E015C080915603A5
:201D0000E82FF0E0EA5CFC4F998190838F5F809356038093570305C0CE01019661E00E9449
:201D2000690F21E030E0C9010F90CF91DF9108950F93062F8091350366E373E0409157035D
:201D400021E00E94140F1092560310925703109258030F91089561E00E94980E08954132F3
:201D600008F040E2862F63E173E00E94CB0E1092330380933403089521E00E94AF0E0895C6
:201D8000109233031092340310925603109257030E9415110895382F413210F040E042C03A
:201DA000809165038823E1F791E090936503209367038FEF8093D20310928D034150409312
:201DC0008E034F5F9093660380916603330F832B8093660380916803813041F410926803E3
:201DE000809166038093BB0085EC01C085EE8093BC00809165038130E1F380918D038417ED
:201E000010F440918D0320E030E00AC0FB01E20FF31FD901A359BC4F8C9180832F5F3F4F67
:201E20002417A0F3842F08950F931F93582F122F413210F081E04AC0809165038823E1F78E
:201E400082E080936503009367038FEF8093D20310928D0340938E03ADE6B3E0FB0102C0C8
:201E600081918D938E2F861B8417D0F31092660380916603550F852B8093660380916803E3
:201E8000813041F410926803809166038093BB0085EC01C085EE8093BC00112321F080913D
:201EA00065038230E1F38091D2038F3F11F480E00DC08091D203803211F482E007C0809177
:201EC000D203803311F084E001C083E01F910F910895482F613210F081E008958091650383
:201EE000843011F082E008956093B003AFE8B3E0842F9C01F90102C081918D938E2F841BC4
:201F00008617D0F380E008951F920F920FB60F9211242F933F934F935F936F937F938F93D9
:201F20009F93AF93BF93EF93FF938091B90090E0887F90708036910509F4F2C0813691053E
:201F4000CCF58832910509F47BC089329105B4F48031910509F46FC0813191053CF40097BD
:201F600009F447C1089709F04FC165C08831910509F466C0809709F047C182C08034910579
:201F800009F4A4C08134910544F48033910509F482C0C89709F038C189C08035910509F4F3
:201FA00089C08835910509F496C08834910509F02BC1AEC08839910509F413C1893991050D
:201FC000ECF48837910509F4ABC0893791054CF48836910509F4A4C08037910509F014C1FE
:201FE0009FC08838910509F4FCC08039910509F49DC08038910509F007C198C0803B910512
:2020000009F4C6C0813B91054CF4803A910509F49FC0883A910509F0F7C0BAC0803C91052B
:2020200009F4E3C0883C910509F4DFC0883B910509F0EAC0C2C0809166038093BB00CFC0B5
:2020400090918D0380918E03981768F490918D03E92FF0E0E359FC4F80818093BB009F5F35
:2020600090938D03BCC080916703882309F44BC085ED8093BC008091BC0084FDFCCFC2C027
:2020800080E28093D20385ED8093BC008091BC0084FDFCCFB7C080E38093D20385ED809355
:2020A000BC008091BC0084FDFCCFACC088E38093D2039BC080918D039091BB00E82FF0E0CD
:2020C000E359FC4F90838F5F80938D0390918D0380918E0382C080918D039091BB00E82FAC
:2020E000F0E0E359FC4F90838F5F80938D0380916703882341F085ED8093BC008091BC0080
:2021000084FDFCCF7FC081E08093680384EA6EC085ED8093BC008091BC0084FDFCCF72C02D
:2021200083E0809365031092D10359C08091D103803208F056C08091D1039091BB00E82FB5
:20214000F0E0EF54FC4F90838F5F8093D10347C08091D103803230F4E091D103F0E0EF541F
:20216000FC4F108285ED8093BC008091BC0084FDFCCF109265036091D103E0916B03F091F9
:202180006C0381EB93E070E009951092D1032DC084E0809365031092AF031092B003E091A7
:2021A0006903F0916A0309958091B003882329F481E08093B00310928F039091AF03E92F55
:2021C000F0E0E157FC4F80818093BB009F5F9093AF039091AF038091B003981710F485EC4F
:2021E00001C085E88093BC000FC085EC8093BC0009C01092D20385ED8093BC008091BC0085
:2022000084FDFCCF10926503FF91EF91BF91AF919F918F917F916F915F914F913F912F9108
:202220000F900FBE0F901F9018951092650381E0809367031092680382E161E00E94992A39
:2022400083E161E00E94992AE9EBF0E080818E7F808380818D7F808388E48093B80085E40F
:202260008093BC000895EF92FF920F931F93CF93DF93582F162FE42E022FF32E89E593E0A7
:20228000652F0E94E60D89E593E0612F0E94680E202F3F2DC901EC0110E006C089E593E083
:2022A00069910E94680E1F5F1E15C0F389E593E00E94AB0E90E0882309F491E0892FDF91BB
:2022C000CF911F910F91FF90EF900895DF93CF930F92CDB7DEB7498341E09E012F5F3F4F6D
:2022E0000E9433110F90CF91DF9108952F923F924F925F926F927F928F929F92AF92BF9292
:20230000CF92DF92EF92FF920F931F93DF93CF9300D000D00F92CDB7DEB7882E6983942EF3
:202320003B832A830E94A9295B016C01EE24FF24292C33242801662477244BC089E593E0DA
:20234000682D0E94E60D89E593E069810E94680E89E593E00E94AB0E89E593E0682D0E941C
:20236000E60DA1014E1951094132510514F040E250E089E593E0682D0E94BC0E2F2D332750
:2023800027FD30958A819B81280F391F3D832C8389E593E00E94F00D892B09F452C00115D6
:2023A000110561F00E94A9296A197B098C099D09641575058605970508F043C089E593E00A
:2023C0000E94F90DEC81FD818193FD83EC83F394DFCFE91408F4B2CF01151105C9F00E9431
:2023E000A9296A197B098C099D09980140E050E0621773078407950758F02F2D332727FDA4
:202400003095892D90E02817390714F4FF24FA948F2D0F900F900F900F900F90CF91DF91F2
:202420001F910F91FF90EF90DF90CF90BF90AF909F908F907F906F905F904F903F902F902A
:20244000089589E593E00E94AB0E892DF0E2F91508F480E2E80EBDCF0F931F93FA01890154
:2024600041E09F010E9476111F910F910895DF92EF92FF920F931F93DF93CF930F92CDB7B5
:20248000DEB7E82ED62EF42E122F2091080130910901AE014F5F5F4F0E942C12882341F1DD
:2024A000212F30E04F2D50E04F5F5F4F421B530B81E090E002C0880F991F1A95E2F70197F7
:2024C000042E02C0880F991F0A94E2F7202F30E002C0220F331F4A95E2F7482F40955981C0
:2024E00045238223482B49838E2D6D2D0E9466110F90CF91DF911F910F91FF90EF90DF90E6
:202500000895EF92FF920F931F93DF93CF930F92CDB7DEB7F82EE62E042F122F20910801C2
:2025200030910901AE014F5F5F4F0E942C122981112351F081E090E002C0880F991F0A9545
:20254000E2F7422F482B0AC081E090E002C0880F991F0A95E2F7482F4095422349838F2D61
:202560006E2D0E9466110F90CF91DF911F910F91FF90EF900895CF92DF92EF92FF920F93B7
:202580001F93DF93CF930F92CDB7DEB7C42ED22E9701AE014F5F5F4F0E942C12682F882344
:2025A00009F18D2D90E04C2D50E04F5F5F4F481B590B21E030E002C0220F331FDA94E2F78E
:2025C00021503040042E02C0220F331F0A94E2F78981822390E002C0959587954A95E2F74D
:2025E000F8018083862F0F90CF91DF911F910F91FF90EF90DF90CF900895FC016083089575
:202600008F929F92AF92BF92CF92DF92EF92FF920F931F937C016B015A0149019C012F5FE5
:202620003F4F0091080110910901FC01808163E446E00E947611F701918180E0228130E016
:20264000822B932BF60191838083F701938180E0248130E0822B932BF50191838083F70170
:20266000958180E0268130E0822B932BF401918380831F910F91FF90EF90DF90CF90BF903B
:20268000AF909F908F9008958F929F92AF92BF92CF92DF92EF92FF920F931F937C016B010B
:2026A0005A0149019C012F5F3F4F0091080110910901FC0180816BE346E00E947611F701E4
:2026C000918180E0228130E0822B932BF60191838083F701938180E0248130E0822B932BD0
:2026E000F50191838083F701958180E0268130E0822B932BF401918380831F910F91FF9052
:20270000EF90DF90CF90BF90AF909F908F900895FC01262F80816BE646E00E948112089557
:202720000F93FC01062F80816BE642E023E00E9437120F9108950F93FC01062F80816CE104
:2027400044E022E00E9437120F9108950F93FC01062F80816BE144E022E00E9437120F9159
:2027600008950F931F938C0161E00E949013C80160E00E94A613C80160E00E949B13C801CF
:2027800060E00E9488131F910F910895CF92DF92EF92FF920F931F936C018C010F5F1F4FC1
:2027A000E0900801F0900901FC01808165E746E026E00E94BB12F60181811F910F91FF9059
:2027C000EF90DF90CF9008950E94C61390E0843309F491E0892F089580912E048823E1F7E4
:2027E000089580916F008B7F80936F0080916F008F7D80936F008091D3038093D403809140
:202800002E048823E1F780916F008D7F80936F000895282F909131049F5F943408F090E07D
:20282000809132048917E1F33FB7F89480912E04882341F0E92FF0E0ED5CFB4F20839093FB
:2028400031041DC081E080932E0420932F041092300482E086BB80916F00826080936F007D
:20286000809180008F738068809380008091840090918500409690938900809388003FBFF4
:202880000895862F0E94091481E090E008951F920F920FB60F9211242F933F934F935F9364
:2028A0006F937F938F939F93EF93FF9340912E0450912F04209188003091890060912A04E3
:2028C00070912B04809130041FC0260F371F952F917056954F5F9817B9F0992321F0809185
:2028E0008000806C04C0809180008F738068809380003093890020938800909330045093D9
:202900002F0440932E043BC04930F8F2493039F48AE080932E0480918000806C28C0809156
:202920003104E09132048E1769F410922E04809180008F738093800080916F008D7F809320
:202940006F001DC081E080932E04EF5FE43408F0E0E0E0933204F0E0ED5CFB4F8081809347
:202960002F0410923004809180008F73806880938000260F371F3093890020938800FF919E
:20298000EF919F918F917F916F915F914F913F912F910F900FBE0F901F9018951F920F923E
:2029A0000FB60F9211241F932F933F934F935F936F937F938F939F93AF93BF93EF93FF9352
:2029C000209186003091870090912604992341F0809181008F7B809381001092260408C07C
:2029E0008091810080648093810080E88093260470912504772331F5992309F06CC080914C
:202A0000280490912904820F931F90938B0080938A0084E086BB80916F00846080936F0023
:202A200080912A0490912B04280F391F96958795280F391F30932D0420932C0481E0809357
:202A4000250449C040912C0450912D0410912604E0912A04F0912B0460912704AA27BB2748
:202A6000AE1BBF0BC901841B950B97FD2CC06695612B7F5F8A0F9B1F793018F44E0F5F1FF2
:202A8000F4CF6093270480916F008B7F80936F009091D4039F5F903508F090E08091D3033F
:202AA000981739F0E92FF0E0EB52FC4F60839093D403809181008F7B8093810010922604F5
:202AC0001092250408C06093270450932D0440932C0470932504FF91EF91BF91AF919F9132
:202AE0008F917F916F915F914F913F912F911F910F900FBE0F901F9018951F920F920FB618
:202B00000F9211242F938F939F93EF93FF9380916F008B7F80936F00809181008F7B8093FA
:202B20008100909125048091260480582091270403C02695282B9F5F9930D8F3209327049A
:202B40009091D4039F5F903508F090E08091D303981739F0E92FF0E0EB52FC4F208390935D
:202B6000D40310922504809181008F7B8093810010922604FF91EF919F918F912F910F90F8
:202B80000FBE0F901F9018958091D403E091D3038E1719F42FEF3FEF0EC02E2F2F5F203532
:202BA00008F020E0E22FF0E0EB52FC4F80812093D303282F30E0C90108958091D403E09103
:202BC000D3038E1719F4EFEFFFEF06C0F0E0EB52FC4F8081E82FF0E0CF0108959091D40336
:202BE0008091D303292F30E0482F50E0981710F4205B3F4F241B350BC90108959B01AC01F4
:202C00002D3A8BE1380780E0480780E0580730F410926F001092800081E814C063E0569572
:202C20004795379527956A95D1F72D3A8BE1380780E0480780E05807D0F510926F00109271
:202C4000800082E88093810030932B0420932A04CA01B90125E230E040E050E00E945C3108
:202C600052E096958795779567955A95D1F7709329046093280488E062E00E945A2A89E094
:202C800061E00E94992A89E061E00E945A2A109225041092D4031092D30310922E0410928C
:202CA00031041092320480E286BB80936F0008958091C10085FDFCCF8091C00085FFF8CF0A
:202CC0006093C60081E090E00895109286041092850482E491E090938404809383040895BD
:202CE000FF920F931F93CF93DF938B010E94A929EB01FF24FA9409C00E94A9296C1B7D0B32
:202D00006017710710F080E008C0FEBC0DB407FEFDCF8EB58F3F81F781E0DF91CF911F91E6
:202D20000F91FF900895FC01808161E00E94992A8FEF8EBD0DB407FEFDCF0895CF93DF9357
:202D4000EC01DA016EBD0DB407FEFDCF8C918EBD1196EC91119782E090E00DB407FEFDCF56
:202D6000EEBD22E08030920731F0FD01E80FF91FE0810196F2CF0DB407FEFDCF8FEF8EBD1B
:202D80000DB407FEFDCF8FEF8EBD0DB407FEFDCF8FEF8EBD0DB407FEFDCF8EB58B838F719A
:202DA000853011F481E006C083E18983CE010E94931680E0DF91CF910895BF92CF92DF92B8
:202DC000EF92FF920F931F93CF93DF93EC016B017A010E94A9298B01BB24BA9409C00E944D
:202DE000A929601B710B6D52714010F081E10BC0BEBC0DB407FEFDCF8EB58B838F3F79F3D6
:202E00008E3F39F08FE08983CE010E94931680E030C0D7011197EF28D9F08FEF8EBD20E0AE
:202E200030E09FEF0BC00DB407FEFDCF8EB59EBDF601E20FF31F80832F5F3F4F2A173B075D
:202E400090F30DB407FEFDCF8EB5AC0DBD1D8C931B828FEF8EBD0DB407FEFDCF8EB58FEFAF
:202E60008EBD0DB407FEFDCF8EB5CE010E94931681E0DF91CF911F910F91FF90EF90DF901A
:202E8000CF90BF9008950F931F938C0187E894E0F80162810E942722F801808160E00E9480
:202EA000992A1F910F910895FF920F931F93DF93CF9300D000D0CDB7DEB78C01F62E298393
:202EC0003A834B835C830E944317C80168E572E00E9470168F2D80648EBD0DB407FEFDCF7F
:202EE000FE0131969E012350304083818EBD0DB407FEFDCF3197E217F307B9F7FF2011F01E
:202F000087E801C085E98EBD0DB407FEFDCF8CE0F81631F48FEF8EBD0DB407FEFDCF8EB5F9
:202F200090E02FEF2EBD0DB407FEFDCF8EB587FF02C09150B9F7F80183830F900F900F908E
:202F40000F90CF91DF911F910F91FF900895CF92DF92EF92FF920F931F93CF93DF93EC018D
:202F60007A018B0169018C81833039F099E0EE0CFF1C001F111F9A95D1F7CE0168E1A80162
:202F800097010E945417882319F086E089830CC0CE016EEFA6010E949E16882329F0CE01DE
:202FA0000E94931681E004C0CE010E94931680E0DF91CF911F910F91FF90EF90DF90CF902B
:202FC0000895CF92DF92EF92FF920F931F93CF93DF93EC017A018B0169018C81833039F001
:202FE000B9E0EE0CFF1C001F111FBA95D1F7CE0161E1A80197010E945417882339F084E026
:203000008983CE010E94931680E006C0CE01B60140E052E00E94DD16DF91CF911F910F91D7
:20302000FF90EF90DF90CF900895BF92CF92DF92EF92FF920F931F93CF93DF93EC01B42EEB
:203040001C82198268830E94A9296B01888161E00E945A2A888161E00E94992A87E894E06A
:203060000E94412280E48A8387E894E060E40E94272280E09FEF9EBD0DB407FEFDCF8F5FFF
:203080008A30C9F709C00E94A9296C197D09615D774010F081E063C0CE0160E020E030E056
:2030A00040E050E00E945417813069F71FEFCE0168E02AEA31E040E050E00E945417853046
:2030C00011F481E00DC080E01EBD0DB407FEFDCF9EB58F5F8430C1F79B839A3A31F482E0CA
:2030E0008C838C81823051F40DC00E94A9296C197D09615D7740D8F282E031C0EE24FF24AA
:2031000087010FC0E12CF12C012D80E4182F09C00E94A9296C197D09615D774010F08AE02E
:203120001EC0CE0167E320E030E040E050E00E945417CE0169E2A80197010E945417882318
:2031400039F78C81823031F5CE016AE320E030E040E050E00E945417882339F088E0898389
:20316000CE010E94931680E01AC08FEF8EBD0DB407FEFDCF8EB5807C803C11F483E08C832E
:2031800080E09FEF9EBD0DB407FEFDCF2EB58F5F8330C1F7CE010E949316BA8281E0DF91F1
:2031A000CF911F910F91FF90EF90DF90CF90BF9008950F931F93CF93DF93DC01EB018A011B
:2031C00080E090E020E2FE01E80FF91F208301968B309105C1F757E040E024C0622F2E32A0
:2031E00019F08AE691E007C05A3051F15AE048E018C0321729F1FC01019634913323C9F746
:203200005417F0F02132E0F02F37D0F4822F81568A3110F4622F6052FE01E40FF11D6083A9
:203220004F5F11962C91222311F02F32B9F6F801B183A08390E08881803219F091E001C070
:2032400090E0892FDF91CF911F910F910895CF92DF92EF92FF920F931F93DF93CF9300D0AD
:2032600000D0CDB7DEB77C01FC0186899789A08DB18D89839A83AB83BC8300E010E06E017C
:203280000894C11CD11C49815A816B817C81D70114968D919C91159796010E945125882367
:2032A00079F1D7011496ED91FC9115978481080F111DB0E100301B0718F529813A814B8100
:2032C0005C818289803131F4285F3F4F40405040D0F205C0285F3F4F4F4F5F40A0F2C801D7
:2032E000A0E0B0E029E0880F991FAA1FBB1F2A95D1F7F701828B938BA48BB58B81E001C088
:2033000080E00F900F900F900F90CF91DF911F910F91FF90EF90DF90CF900895CF93DF9364
:20332000EC01FB018A818823D1F57D836C8382898031C9F582E08A831E8A1F8A188E198EB2
:2033400083899489A0E0B0E035E0880F991FAA1FBB1F3A95D1F78A8B9B8BAC8BBD8B0FC00D
:2033600083E08A8385899689A789B08D8E8B9F8BA88FB98FCE010E942719882381F081E053
:2033800089831E821F82188619861A861B861C861D861E861F86188A198A1B8201C080E0D1
:2033A000DF91CF9108958032D1F7DACF6F927F928F929F92AF92BF92CF92DF92EF92FF92A3
:2033C0000F931F93CF93DF93EC017A018B012A81222309F480C08A899B89AC89BD89841757
:2033E0009507A607B70708F476C085C0E114F1040105110551F41E821F82188619861A86E6
:203400001B861C861D8681E067C02A853B854C855D85EC81FD81818590E00996215030403B
:203420004040504039014A01082E04C096948794779467940A94D2F72F5F3F4F4F4F5F4FE3
:203440000894E108F108010911095701680104C0D694C794B794A7948A95D2F70894E11C79
:20346000F11C011D111DA614B704C804D90428F0211531054105510549F48E899F89A88D04
:20348000B98D8E839F83A887B98716C0A618B708C808D90811C04E815F81688579858C81C8
:2034A0009D8194010E9451250894A108B108C108D108882331F40FC046E0842E912C8C0ED3
:2034C0009D1EA114B104C104D10429F7EA86FB860C871D8798CF80E0DF91CF911F910F91FE
:2034E000FF90EF90DF90CF90BF90AF909F908F907F906F900895223009F078CFE7CFCF93BF
:20350000DF93EC01462F6E857F85888999890E94CD22AC01009719F420E030E00AC08B81E5
:20352000282F30E065E0220F331F6A95E1F7240F351FC901DF91CF9108950F931F93CF9311
:20354000DF938C01FC0182818823F1F1818187FF38C0C80161E00E947F1AEC010097A1F104
:203560008881853E89F1F8018281823040F482899389A489B5898C8F9D8FAE8FBF8FF801C6
:20358000868997899B8F8A8F86899789A08DB18DCD01AA27BB279D8B8C8BE0918A04F091DF
:2035A0008B04309751F0BE016A5E7F4FCE0148960995888D998D9B8B8A8BF80181818F775D
:2035C00081830E94852204C081E0F801808380E0DF91CF911F910F9108956F927F928F922D
:2035E0009F92AF92BF92CF92DF92EF92FF920F931F93DF93CF9300D000D0CDB7DEB77C01C6
:203600005A016B01DC0112968C911297813009F091C011968C9181FF8DC0A0C00097A1056F
:20362000B10511F481E087C0F7016284738484849584C701B601A5010E94D619882309F4D3
:2036400079C0D70114968D919C911597A114B104C104D10489F456964D915D916D917C9174
:2036600059970E94C025882309F464C0F701168A178A108E118E44C0D70116964D915D913D
:203680006D917C9119979E012F5F3F4F0E945125882309F44FC0D7011496ED91FC911597AC
:2036A00049815A816B817C818289803149F4483FBFEF5B07B0E06B07B0E07B0748F020C0C0
:2036C000483F8FEF58078FEF68078FE07807C0F4CF010E94C025882369F1D70116964D9139
:2036E0005D916D917C91199714968D919C9115970FEF1FEF2FEF3FE00E94E1248823D1F024
:20370000F701A28AB38AC48AD58A818180688183C7010E949D1A882369F0B601A5016A14AD
:203720007B048C049D0410F4B401A301C7010E94D61901C080E00F900F900F900F90CF9126
:20374000DF911F910F91FF90EF90DF90CF90BF90AF909F908F907F906F900895F701828943
:203760009389A489B58984179507A607B70708F055CFE0CF1F93CF93DF93EC01142F262F4A
:2037800030E0F90185E0EE0FFF1F8A95E1F7EF56FB4F8385817121F0842F827109F064C04B
:2037A0008091910690919206A0919306B09194068E879F87A88BB98B6B83F901B5E0EE0FD7
:2037C000FF1FBA95E1F7EF56FB4F2489358940E050E0A901332722272E8B3F8B488F598FCB
:2037E000828D938DA0E0B0E0282B392B4A2B5B2B2E8B3F8B488F598F838590E08871907025
:20380000009751F4848D958DA68DB78D8A8B9B8BAC8BBD8B81E008C0409731F5CE010E94D1
:203820002719882309F184E08A83812F8F7089831E821F82188619861A861B861C861D8673
:2038400014FF18C0CE0140E050E060E070E00E94ED1A882379F408C04A895B896C897D8993
:20386000CE010E94D61902C01A8280E0DF91CF911F91089515FDF0CF81E0F8CF0F931F93C0
:203880008C010E949D1AF80112821F910F910895CF93DF93EC0140E050E060E070E00E9485
:2038A000ED1A882369F0CE0161E00E947F1AFC01009731F085EE80831A820E94852201C0E1
:2038C00080E0DF91CF9108952F923F924F925F926F927F928F929F92AF92BF92CF92DF92EF
:2038E000EF92FF920F931F93DF93CF9300D0CDB7DEB74C011A01DC0112968C911297882347
:2039000009F4B4C011968C9180FFB0C0C7C015012E183F082B01F4013696FA83E983310151
:203920009FC0D4011A962D913D914D915C911D979FEFA92E91E0B92EA222B3221496ED911A
:20394000FC91159779018A0189E016950795F794E7948A95D1F7948112968C91823049F4C3
:20396000458956896789708D4E0D5F1D601F711F35C0D92EDA94DE20A114B10401F5DD2002
:20398000F1F4211531054105510551F4F40186899789A08DB18D86839783A087B1870FC015
:2039A000D40116964D915D916D917C911997CF0129813A810E945125882309F457C0F401FE
:2039C0004681578160857185848195810E946522AB01BC014D0D511D611D711DA114B10482
:2039E00099F4F0E06F16F2E07F0670F08091910690919206A0919306B09194064817590769
:203A00006A077B0709F067C0CB01BA0140E00E94CD22009759F140E052E04A195B098301DD
:203A20004615570508F48A019C012A0D3B1DC201B901A8010E942B02400E511E980140E0B1
:203A400050E0F40182859385A485B585820F931FA41FB51F82879387A487B587601A710A66
:203A60006114710409F05DCFA10102C04FEF5FEFCA010F900F90CF91DF911F910F91FF908F
:203A8000EF90DF90CF90BF90AF909F908F907F906F905F904F903F902F900895D401529639
:203AA000AD90BD90CD90DC9055971A96ED90FD900D911C911D979A0140E050E0D601C50186
:203AC0008E199F09A00BB10B281739074A075B0708F01DCF1FCF809196069091970692012E
:203AE0000E94E117882311F200E012E0A5CFDF93CF930F92CDB7DEB7BE016F5F7F4F41E02E
:203B000050E00E94641C019719F02FEF3FEF03C08981282F30E0C9010F90CF91DF9108955C
:203B2000CF93DF93EC019C012A5F3F4F8C819D8141E050E060E070E00E9427268823A1F0D9
:203B40008E899F89A88DB98D0097A105B10559F48E819F81A885B9858E8B9F8BA88FB98F0F
:203B600089818068898381E0DF91CF9108952F923F924F925F926F927F929F92AF92BF9240
:203B8000CF92DF92EF92FF920F931F93DF93CF9300D000D0CDB7DEB76C01162F072F1A015D
:203BA000DC0112968C911297813009F046C111968C9181FF42C15DC1F60142895389648919
:203BC000758982859385A485B58584179507A607B70731F0C6010E94D619882309F42DC1B4
:203BE000812F902F9C0129013101EDC0D6011496ED91FC911597DA01C90119E0B695A79553
:203C0000979587951A95D1F794809A949822AFEFAA2EA1E0BA2EA222B322992009F052C0AD
:203C2000A114B10409F04EC0D60116964D915D916D917C911997411551056105710571F11F
:203C4000CF019E012F5F3F4F0E945125882309F4F4C029813A814B815C81D6011496ED9158
:203C6000FC9115978289803149F4283FBFEF3B07B0E04B07B0E05B0748F019C0283FEFEF91
:203C80003E07EFEF4E07EFE05E0788F4D60116962D933D934D935C93199714C0F601868990
:203CA0009789A08DB18D0097A105B10531F4C6010E94901D882331F4C0C0F60186839783E1
:203CC000A087B187D60116964D915D916D917C91199714968D919C9115970E9465227B0135
:203CE0008C01E90CF11C011D111DA114B104A9F4B0E06B16B2E07B06A8F5F60122853385CB
:203D00004485558582899389A489B589281739074A075B0710F045E001C041E0C801B701B4
:203D20000E94CD22009709F488C040E052E04A195B0983014615570508F48A019C012A0D67
:203D40003B1DC901B201A8010E942B02A00EB11EF0E0AF16F2E0BF0611F50E94CA2288232E
:203D6000F1F46BC08091910690919206A0919306B09194068E159F05A007B10711F40E94E0
:203D800056228091960690919706B801A70192010E94A717882309F450C000E012E09801C9
:203DA00040E050E0F60182859385A485B585820F931FA41FB51F82879387A487B587400E88
:203DC000511E601A710AD6011A962D913D914D915C911D976114710409F008CF52968D912D
:203DE0009D910D90BC91A02D82179307A407B50748F4F601228B338B448B558B818180680D
:203E0000818310C080918A0490918B04892B51F02114310439F0D60111968C9111978068CC
:203E200011968C93F601818183FF05C0C6010E949D1A882311F0A10105C081E0D6018C93F2
:203E40004FEF5FEFCA010F900F900F900F90CF91DF911F910F91FF90EF90DF90CF90BF9044
:203E6000AF909F907F906F905F904F903F902F90089582FDA1CEB4CE9F92AF92BF92CF9239
:203E8000DF92EF92FF920F931F93CF93DF938C01FC0182899389A489B589805E9F4FAF419F
:203EA000B04008F05CC0C8010E94901D882309F456C0D80116964D915D916D917C9119971C
:203EC00014968D919C9115970E9465225B016C0145E00E94CD22EC01009709F442C080E0B6
:203EE00092E0FE019C01119221503040E1F79C2EED2EFF24F39411C0B601A5014F0D511DD1
:203F0000611D711D8091960690919706292D3E2D0E94A717882319F1F394D8011496ED91CC
:203F2000FC9115972481F21638F330E040E050E089E0220F331F441F551F8A95D1F752967E
:203F40008D919D910D90BC91A02D820F931FA41FB51FF801828B938BA48BB58B02C0C0E08F
:203F6000D0E0CE01DF91CF911F910F91FF90EF90DF90CF90BF90AF909F9008953F924F92BA
:203F80005F926F927F928F929F92AF92BF92CF92DF92EF92FF920F931F93CF93DF934C01E1
:203FA000EB01442E352E522E8C819D81F40195838483CB0140E050E060E070E00E94D61944
:203FC00077244FC0CE010E94771D97FDABC08A859B85AC85BD8581509E4FAF4FBF4F8A87B6
:203FE0009B87AC87BD87A0909106B0909206C0909306D090940621E9E22E24E0F22E00E088
:2040000010E0602EF7018081882311F0853E79F4772041F4F401A686B786C08AD18A638299
:2040200077247394F7018081882391F428C0B80195E0660F771F9A95E1F76F567B4F842D4D
:20404000932D4BE050E00E941E02009709F47DC00F5F1F4F80E290E0E80EF91E00311105B0
:2040600081F62A853B854C855D858A899B89AC89BD89281739074A075B0708F4A3CF56FE01
:2040800051C051FE4FC0772051F0F4016380C40161E00E947F1AEC01009761F443C08A81D9
:2040A000823009F43FC0CE010E943C1F0097D1F1EC01662480E2FE0111928A95E9F7DE01D4
:2040C000242D332DC901FC018BE001900D928150E1F7E0918A04F0918B04309739F0BE0166
:2040E000625F7F4FCE014096099508C081E298E2998B888B80E098E09F878E8788899989CC
:204100009B8B8A8B998F888F8E859F859F8B8E8B0E948522882331F0C401662D452D0E942A
:20412000BA1B01C080E0DF91CF911F910F91FF90EF90DF90CF90BF90AF909F908F907F90A2
:204140006F905F904F903F90089557FEE5CFEACF2F923F924F925F926F927F928F929F929C
:20416000AF92BF92CF92DF92EF92FF920F931F93DF93CF93CDB7DEB7C454D0400FB6F8940F
:20418000DEBF0FBECDBF3C016B01DE01A05CBF4F11965C934E9323962FAF239761157105E3
:2041A00009F483C01E8618A6FC018281882309F07CC01C861EA2FA0180818F32F1F08601F6
:2041C0005CE0E52EF12CEC0EFD1E40E4A42EB12CAC0EBD1E4E010894811C911C2596FFAE59
:2041E000EEAE259736E2232E312C2C0E3D1E270124C01196B183A08301C0FD01A081B181F0
:204200008C918F32B1F3D60112968C91129782508230A8F28E010A5D1F4F14966D917C91A0
:204220001597C8010E948E19882351F63EC0342D252D8701832F922F7C01F501808191819C
:20424000B401A5010E94D918882329F42EC03196D501ED93FC93D501ED91FC9180818F326B
:20426000B1F38823C9F0C701B801A40121E00E94BE1F8823D1F00C151D0519F0C8010E946D
:204280003E1C2596EEADFFAD2597EE16FF0679F6C101322D292FCDCFC301B801A40123969E
:2042A0002FAD23970E94BE1F01C080E0CC5BDF4F0FB6F894DEBF0FBECDBFCF91DF911F91AC
:2042C0000F91FF90EF90DF90CF90BF90AF909F908F907F906F905F904F903F902F9008957F
:2042E0000F931F93DF93CF93CDB7DEB76A970FB6F894DEBF0FBECDBF9C01AB0119821B82B4
:204300008E010F5F1F4FC801B90122E00E94A820882319F0C8010E94481C6A960FB6F8946F
:20432000DEBF0FBECDBFCF91DF911F910F910895FB01242F6091880470918904AF010E941E
:20434000A8200895DF93CF93CDB7DEB76A970FB6F894DEBF0FBECDBF9C01AB0119821B8242
:20436000CE010196B90121E00E94A8206A960FB6F894DEBF0FBECDBFCF91DF9108954E961A
:204380000E94702108954E960E94A2210895CF93DF93EC01662331F06E96D0938904C093B5
:2043A00088046E9788A1882321F0CE014E960E943E1CCE014E962596BE010E948E19DF91F2
:2043C000CF9108950F931F93CF93DF93EC010E9415188823C9F08E010B5F1F4FC801BE01A9
:2043E00041E00E941123882339F4C801BE0140E00E941123882341F0CE0161E00E94C721FA
:20440000882319F081E001C080E0DF91CF911F910F910895DF93CF930F92CDB7DEB769832F
:204420000496BE016F5F7F4F41E050E00E94B71D20E030E0019711F421E030E0C9010F9099
:20444000CF91DF91089504960E94B71D089540E082E002C0880F4F5F861710F44630D1F7DA
:20446000242F30E0C9019595879580658CBD40FF02C080E004C080E0463009F081E08DBDFC
:2044800008958AE061E00E94992A8AE061E00E945A2A8CE060E00E945A2A8BE061E00E947E
:2044A0005A2A8DE061E00E945A2A08958FEF9FEFAFEFBFEF8093910690939206A09393067E
:2044C000B09394061092950608950F931F938C01CB01BA016250704080409040F80124812D
:2044E00030E040E050E00E945C319B01AC01F80182859385A485B585280F391F4A1F5B1FF7
:20450000B901CA011F910F9108958091950680FF3DC0409191065091920660919306709195
:204520009406809196069091970621E934E00E94A717882369F18091950681FF22C08091D4
:204540008C048230F0F040918D0450918E0460918F04709190048091910690919206A091B9
:204560009306B0919406480F591F6A1F7B1F809196069091970621E934E00E94A717882341
:2045800039F0809195068E7F8093950681E0089580E008950E9485220895DF92EF92FF9227
:2045A0000F931F937B018C01D42E8091910690919206A0919306B09194068E159F05A007A8
:2045C000B107E1F00E948522882311F1D2FC0CC08091960690919706B801A70121E934E0D8
:2045E0000E94E1178823A1F010929506E0929106F0929206009393061093940683E0D822BF
:20460000809195068D298093950621E934E002C020E030E0C9011F910F91FF90EF90DF9003
:2046200008956F927F928F929F92AF92BF92CF92DF92EF92FF920F931F93CF93DF93EC01EE
:20464000142F70939706609396061A8A82E090E0A0E0B0E088839983AA83BB831092950693
:204660008FEF9FEFAFEFBFEF8093910690939206A0939306B0939406442321F46624772433
:20468000430136C0453008F0EFC060E070E080E090E040E00E94CD22DC01009709F4E4C09E
:2046A000412F50E041505040FA0174E0EE0FFF1F7A95E1F7E80FF91FE254FE4F808190E0E5
:2046C0008F779070892B09F0CFC064E0440F551F6A95E1F7A40FB51FAA53BE4F6D907D901B
:2046E0008D909C90611471048104910409F4BCC0C401B30140E00E94CD225C01009709F4D9
:20470000B3C0FC01838594858050924009F0ACC0F5012089222309F4A7C0468557854115BC
:20472000510509F4A1C020938C0485858C83198691E060E070E00AC0990F6F5F7F4F683023
:20474000710509F491C089858F5F89878C81891799F7F501668977896115710519F080E012
:2047600090E005C0F50164A175A186A197A160938D0470938E0480938F04909390046A01B3
:20478000EE24FF24C60CD71CE81CF91CCE86DF86E88AF98AF501018912891C8B0B8B30E0F0
:2047A00040E050E00E945C316C0D7D1D8E1D9F1D6D8B7E8B8F8B988F35E0000F111F3A959B
:2047C000E1F701501E4F012F11270695980140E050E0260F371F481F591F2A873B874C87A7
:2047E0005D87F50183899489009721F07C0100E010E005C0F501E0A0F1A002A113A1C401D9
:20480000B301621B730B840B950B6E0D7F1D801F911F098404C096958795779567950A9416
:20482000D2F76D837E838F839887653FFFE07F07F0E08F07F0E09F0718F48CE08A8B14C047
:20484000655F7F4F8040904010F480E10AC0F50184A595A5A6A5B7A58D8B9E8BAF8BB88F45
:2048600080E28A8B81E001C080E0DF91CF911F910F91FF90EF90DF90CF90BF90AF909F9086
:204880008F907F906F90089542600E94CD2208956F927F928F929F92AF92BF92CF92DF92B6
:2048A000EF92FF920F931F93CF93DF93EC018D819E81AF81B8852A89203119F0203209F0DF
:2048C0006BC0E2E0EE2EF12C012D112DE80EF91E0A1F1B1F6E847F8488889988AA24BB2403
:2048E000650151C0C401B30140E00E9444249C01009709F451C06A89603119F040E850E077
:2049000002C040E051E0CA01A0E0B0E0E816F9060A071B0708F4A701603199F4F90120E0BD
:2049200030E080819181892B29F40894A11CB11CC11CD11C2F5F3F4F32962417350788F3BD
:2049400016C0F90120E030E080819181A281B3810097A105B10529F40894A11CB11CC11CFA
:20496000D11C2F5F3F4F34962417350768F30894611C711C811C911CCA01A0E0B0E0E81AC5
:20498000F90A0A0B1B0BE114F1040105110509F0A9CFA601950104C02FEF3FEF4FEF5FEF89
:2049A000B901CA01DF91CF911F910F91FF90EF90DF90CF90BF90AF909F908F907F906F908C
:2049C00008958F929F92AF92BF92CF92DF92EF92FF920F931F93CF93DF93EC016A017B0176
:2049E00048015901423051056105710508F44BC08D819E81AF81B8850196A11DB11D841711
:204A00009507A607B70708F43EC08A89803129F4252F362F472F55270BC08032A1F59A015B
:204A2000AB0117E056954795379527951A95D1F78E859F85A889B989280F391F4A1F5B1FF1
:204A4000CA01B90141E00E9444249C010097D9F08A89803149F4F601F070EE0FFF1FE20F45
:204A6000F31F918280820DC0F601EF77F070EE0FFF1FEE0FFF1FE20FF31F80829182A28213
:204A8000B38281E001C080E0DF91CF911F910F91FF90EF90DF90CF90BF90AF909F908F9087
:204AA0000895CF92DF92EF92FF920F931F93CF93DF93EC017A018B016901423051056105C1
:204AC000710508F453C08D819E81AF81B8850196A11DB11D84179507A607B70708F446C0F0
:204AE0008A89803129F45527412F302F2F2D0BC08032E1F59A01AB0167E0569547953795BA
:204B000027956A95D1F78E859F85A889B989280F391F4A1F5B1FCA01B90140E00E94442447
:204B20009C01009719F18A89803159F4F701F070EE0FFF1FE20FF31F80819181A0E0B0E08D
:204B40000EC0F701EF77F070EE0FFF1FEE0FFF1FE20FF31F80819181A281B381BF70F60100
:204B600080839183A283B38381E001C080E0DF91CF911F910F91FF90EF90DF90CF900895A8
:204B80008F929F92AF92BF92CF92DF92EF92FF920F931F93DF93CF9300D000D0CDB7DEB76C
:204BA0005C016A017B014E010894811C911CC501B701A60194010E9451258823B1F1C50197
:204BC000B701A60100E010E020E030E00E94E124882359F1F50180819181A281B381C816BC
:204BE000D906EA06FB0620F4C082D182E282F382C980DA80EB80FC80F5018289803151F4E2
:204C0000F8EFCF16FFEFDF06F0E0EF06F0E0FF0670F209C088EFC8168FEFD8068FEFE80613
:204C20008FE0F80620F281E001C080E00F900F900F900F90CF91DF911F910F91FF90EF90C9
:204C4000DF90CF90BF90AF909F908F9008952F923F924F925F926F927F928F929F92AF9204
:204C6000BF92CF92DF92EF92FF920F931F93DF93CF93CDB7DEB766970FB6F894DEBF0FBE06
:204C8000CDBF1C0149875A876B877C873E872D87DC0115962D913D914D915C9118972F5F30
:204CA0003F4F4F4F5F4F2D833E834F835887ED85FE85008111812281338101151105210547
:204CC000310549F0480159010894811C911CA11CB11C10E006C0DC018D909D90AD90BC90EC
:204CE00011E075016401442455243201F10185819681A781B085481659066A067B0608F0C2
:204D00009DC02D813E814F8158852C153D054E055F0550F4F2E08F2E912CA12CB12CE2E0E6
:204D2000CE2ED12CE12CF12CC101B701A6019E012F5F3F4F0E945125882309F47FC089816B
:204D40009A81AB81BC810097A105B10571F08C149D04AE04BF0409F010E0460157010894A1
:204D6000811C911CA11CB11C16C0D701C6010196A11DB11D8B8B9C8BAD8BBE8B88199909C6
:204D8000AA09BB0929853A854B855C8582179307A407B50759F00894411C511C611C711C2B
:204DA0000894C11CD11CE11CF11CA0CF112349F08B899C89AD89BE89F10180839183A283C3
:204DC000B383C101B701A6010FEF1FEF2FEF3FE00E94E124882399F431C026013701089468
:204DE0004108510861087108C101B301A201970186010E94E124882309F1730162018C1434
:204E00009D04AE04BF0448F3AD85BE854D915D916D917C91411551056105710539F0C10182
:204E2000950184010E94E124882341F0ED85FE8580829182A282B38281E001C080E06696F3
:204E40000FB6F894DEBF0FBECDBFCF91DF911F910F91FF90EF90DF90CF90BF90AF909F9052
:204E60008F907F906F905F904F903F902F900895F999FECF72BD61BDF89A80B50895F9996A
:204E8000FECF1FBA72BD61BD40BD0FB6F894FA9AF99A0FBE08950F931F93CF93DF93BC015B
:204EA0008230910510F462E070E0E0916B07F0916C0740E050E0A0E0B0E024C080819181E6
:204EC00086179707D0F08617970771F482819381109729F013969C938E9312972CC09093AF
:204EE0006C0780936B0727C04115510519F08417950718F48D01AC01EF01DF0182819381B9
:204F00009C01F9013097D1F641155105F9F0CA01861B970B8430910580F48A819B810115CE
:204F2000110521F0F8019383828304C090936C0780936B07FE01329645C0FE01E80FF91F7D
:204F4000619371930297998388833CC08091690790916A07892B41F480910C0190910D0154
:204F600090936A078093690740910E0150910F014115510541F44DB75EB780910A01909112
:204F80000B01481B590B2091690730916A0724173507B0F4CA01821B930B8617970780F01F
:204FA000AB014E5F5F4F8417950750F0420F531F50936A0740936907F9016193719302C065
:204FC000E0E0F0E0CF01DF91CF911F910F910895CF93DF939C01009709F48FC0EC012297BA
:204FE0001B821A8260916B0770916C076115710581F488819981820F931F209169073091F8
:205000006A072817390739F5D0936A07C093690774C0DB0140E050E0AC17BD0708F1BB83BD
:20502000AA83FE0121913191E20FF31FAE17BF0779F48D919C911197280F391F2E5F3F4F38
:205040003983288312968D919C9113979B838A834115510571F4D0936C07C0936B074DC068
:2050600012968D919C911397AD01009711F0DC01D3CFDA011396DC93CE931297FA01219124
:205080003191E20FF31FCE17DF0769F488819981280F391F2E5F3F4FFA01318320838A81F9
:2050A0009B8193838283E0E0F0E0DB0112968D919C911397009719F0BC01FD01F6CFAB01E4
:2050C0004E5F5F4FDB018D919C91840F951F2091690730916A072817390779F4309729F4E4
:2050E00010926C0710926B0702C0138212824250504050936A0740936907DF91CF91089576
:205100006F927F928F929F92AF92BF92CF92DF92EF92FF920F931F93CF93DF938C01009769
:2051200029F4CB010E944B278C01BBC08EEFE82E8FEFF82EE00EF11E4801860E971E8E1402
:205140009F0408F4ACC0D7014D915C91119746175707B8F04530510508F4A3C0CA01049706
:205160008617970708F49DC042505040461B570BF401419351936D937C93CF010E94E82779
:2051800090C05B01A41AB50A3801640E751EA0916B07B0916C07E0E0F0E0CC24DD2447C0C9
:2051A000A615B705A9F5CD91DC911197CE0102968A159B0568F1CE018A199B090296129612
:2051C0002C91129713963C91059758F0F40122833383CA19DB09D183C083D7016D937C937A
:2051E00009C04E5F5F4F4C0F5D1FF70151834083C901FC01C114D10431F0D6011396FC9384
:20520000EE9312974EC0F0936C07E0936B0749C08D919C911197E817F90708F4FC016D0119
:2052200012968C91129713969C919C01D901109709F0B6CF8091690790916A078615970544
:20524000E9F4E617F707D0F420910E0130910F012115310541F42DB73EB780910A0190916A
:205260000B01281B390B82169306C8F490926A0780926907F7017183608313C0CB010E9489
:205280004B27EC01009759F0D7014D915C91B8010E942B02C8010E94E8278E0102C000E0F9
:2052A00010E0C801DF91CF911F910F91FF90EF90DF90CF90BF90AF909F908F907F906F904F
:2052C00008951F920F920FB60F9211242F933F938F939F93AF93BF9380919D0690919E064F
:2052E000A0919F06B091A0063091A1060196A11DB11D232F2D5F2D3720F02D570196A11D3B
:20530000B11D2093A10680939D0690939E06A0939F06B093A0068091990690919A06A09185
:205320009B06B0919C060196A11DB11D8093990690939A06A0939B06B0939C06BF91AF9108
:205340009F918F913F912F910F900FBE0F901F9018958FB7F89420919D0630919E064091AA
:205360009F065091A0068FBFB901CA010895789484B5826084BD84B5816084BD85B58260B2
:2053800085BD85B5816085BDEEE6F0E0808181608083E1E8F0E010828081826080838081D3
:2053A00081608083E0E8F0E0808181608083E1EBF0E0808184608083E0EBF0E0808181608B
:2053C0008083EAE7F0E08081846080838081826080838081816080838081806880831092E8
:2053E000C1000895EF92FF920F931F93CF93DF937B018C013FB7F8948091990690919A0619
:20540000A0919B06B0919C0626B5A89B05C02F3F19F00196A11DB11D3FBFBA2FA92F982FD4
:205420008827820F911DA11DB11D52E0880F991FAA1FBB1F5A95D1F7EC0130C00E945B310C
:205440003FB7F8948091990690919A06A0919B06B0919C0626B5A89B05C02F3F19F00196B3
:20546000A11DB11D3FBFBA2FA92F982F8827820F911DA11DB11D32E0880F991FAA1FBB1F9C
:205480003A95D1F78C1B9D0B885E9340B8F20894E108F10801091109C851DC4FE114F104F3
:2054A0000105110559F6DF91CF911F910F91FF90EF900895CF93DF93482F50E0CA01845597
:2054C0009E4FFC01349148565E4FFA018491882369F190E0880F991FFC01E658FE4FA59140
:2054E000B491FC01EC57FE4FC591D491662351F42FB7F8948C91932F909589238C93888107
:2055000089230BC0623061F42FB7F8948C91932F909589238C938881832B88832FBF06C076
:205520009FB7F8948C91832B8C939FBFDF91CF910895482F50E0CA0180549E4FFC012491EF
:20554000CA0184559E4FFC01949148565E4FFA013491332309F440C0222351F1233071F0FF
:20556000243028F42130A1F0223011F514C02630B1F02730C1F02430D9F404C08091800038
:205580008F7703C0809180008F7D8093800010C084B58F7702C084B58F7D84BD09C08091E1
:2055A000B0008F7703C08091B0008F7D8093B000E32FF0E0EE0FFF1FEC57FE4FA591B491DA
:2055C0002FB7F894662321F48C919095892302C08C91892B8C932FBF0895682F70E0CB01DD
:2055E00080549E4FFC012491CB0184559E4FFC01449168567E4FFB019491992319F420E05F
:2056000030E03CC0222351F1233071F0243028F42130A1F0223011F514C02630B1F0273077
:20562000C1F02430D9F404C0809180008F7703C0809180008F7D8093800010C084B58F773B
:2056400002C084B58F7D84BD09C08091B0008F7703C08091B0008F7D8093B000892F90E0F7
:20566000880F991F82579E4FFC01A591B4918C9120E030E0842311F021E030E0C901089550
:20568000DC01ED91FC910484F585E02D70E00995089508951F920F920FB60F9211242F933C
:2056A0003F934F935F936F937F938F939F93AF93EF93FF938091C00082FD51C0A091C10033
:2056C0007091C60040913207509133074F5F5F4F4F77507080913407909135074817590794
:2056E000D1F1209132073091330783E0369527958A95E1F78091320790913307682F67700F
:20570000E0913207F0913307EE55F94F708330E0A1FF0EC0F901EE5DF84F81E090E002C009
:20572000880F991F6A95E2F72081282B20830EC0F901EE5DF84F81E090E002C0880F991F6F
:205740006A95E2F78095208182238083509333074093320706C081E08093430702C0809193
:20576000C600FF91EF91AF919F918F917F916F915F914F913F912F910F900FBE0F901F9099
:205780001895E0915007F0915107E057FF4F8191919120813181821B930B8F779070892BBA
:2057A00011F00E94492B08951F920F920FB60F9211242F933F934F938F939F93EF93FF936A
:2057C00020913F073091400780914107909142072817390731F48091C1008F7D8093C100B1
:2057E0003AC0E0914107F09142078091410790914207877021E030E002C0220F331F8A95FD
:20580000E2F793E0F695E7959A95E1F7F0E0E25CF84F40814223E0914107F0914207EA5CEA
:20582000F84FE081809141079091420701968770907090934207809341078091C1008E7FC9
:205840008093C100442329F08091C10081608093C100E093C600FF91EF919F918F914F91F4
:205860003F912F910F900FBE0F901F901895DC0180E090E01C96ED91FC911D97E80FF91F04
:205880001082019680389105A9F780E090E01C96ED91FC911D97E80FF91FE058FF4F108289
:2058A00001968031910599F780E090E01C96ED91FC911D97E80FF91FEC56FF4F1082019671
:2058C0008830910599F71C96ED91FC911D97E456FF4F10821C96ED91FC911D97E057FF4F69
:2058E000118210823296118210823B96118210823296118210823296108208958F92AF925A
:20590000BF92CF92DF92EF92FF920F931F93DF93CF93CDB7DEB7FC011382128288EE93E002
:20592000A0E0B0E084839583A683B78382E591E0918380837587648757874687318B208BED
:20594000138B028BF58AE48AD78AC68AB18EA08E828E8E85838F8F85848F8889858F89897E
:20596000868FCF010E94372CCF91DF911F910F91FF90EF90DF90CF90BF90AF908F900895F7
:205980008F929F92AF92BF92CF92DF92EF92FF920F931F93CF93DF93EC017A018B01A22E53
:2059A000C22EDD2481E0C822DD24C8A2BB24403081EE580780E0680780E0780711F0BB2495
:2059C000B394F1E08F2E912CEA89FB89BB2069F0C4010E8C02C0880F991F0A94E2F7808320
:2059E00060E079E08DE390E005C0108260E874E88EE190E0A80197010E94A23121503040BD
:205A000040405040569547953795279580E12030380720F0BB2011F0BB24D6CFEE85FF85D0
:205A20003083E889F9892083EE89FF898EEFA822A082EC89FD8980818B7F8083CD2829F09E
:205A4000EC89FD89808184608083EC89FD89408121E030E0C9010A8C02C0880F991F0A9487
:205A6000E2F7482B4083EC89FD894081C9010B8C02C0880F991F0A94E2F7482B4083EC89C7
:205A8000FD894081C9010C8C02C0880F991F0A94E2F7482B4083EC89FD8980810D8C02C048
:205AA000220F331F0A94E2F7209528232083DF91CF911F910F91FF90EF90DF90CF90BF90FE
:205AC000AF909F908F900895CF93DF93DC011C968D919C911D97EC01C356DF4FFC01E156D2
:205AE000FF4F288139818081918128173907C9F75496ED91FC915597408121E030E0C90126
:205B00005A960C905A9702C0880F991F0A94E2F78095842380835496ED91FC91559740811F
:205B2000C9015B960C905B9702C0880F991F0A94E2F78095842380835496ED91FC915597F4
:205B40004081C9015C960C905C9702C0880F991F0A94E2F78095842380835496ED91FC91FD
:205B6000559780815D960C905D9702C0220F331F0A94E2F72095282320831C96ED91FC9199
:205B80001D97EE56FF4F8081918192938293DF91CF910895DC011C96ED91FC911D97E05780
:205BA000FF4F2191319180819181281B390B2F773070C9010895DC011C96ED91FC911D978E
:205BC000EF55FF4F80810895CF93DF93AC01FC01A485B585A057BF4F2D913C911197A05983
:205BE000B040ED01CE56DF4F888199812817390719F46FEF7FEF22C0E881F981EA0FFB1F22
:205C00008081682F70E0FA0180A18823B9F04881598188819981877021E030E002C0220F6B
:205C2000331F8A95E2F783E0569547958A95E1F7A40FB11D8C91822309F07260CB01DF91AF
:205C4000CF9108950F931F93CF93DF938C01FC01A485B585A057BF4F2D913C911197A05901
:205C6000B040ED01CE56DF4F888199812817390719F46FEF7FEF35C0E881F981EA0FFB1F8E
:205C80008081682F70E0F80180A18823C1F04881598188819981877021E030E002C0220FE5
:205CA000331F8A95E2F793E0569547959A95E1F7FD01E40FF11D8081822309F07260FD01EB
:205CC000EE56FF4F8081918101968F77907091838083D8011C96ED91FC911D97EF55FF4F8F
:205CE0001082CB01DF91CF911F910F910895DC015F968C915F97882339F05296ED91FC91DD
:205D00005397808186FFF9CF5F961C9208950F931F93CF93DF93EC018B01AC85BD85A356FE
:205D2000BF4F4D915C911197AD59B0404F5F5F4F47705070FD01E156FF4F80819181481724
:205D40005907D9F388A1882359F1FD01E356FF4F808191812081318133E0969587953A95E5
:205D6000E1F7682F70E0277081E090E0382F01C0330F2A95EAF7FD01E60FF71FE456FF4F61
:205D8000832F809590818923808310FF09C0EC85FD85E60FF71FE456FF4F8081832B80836C
:205DA000EC85FD85E356FF4F80819181ED59F040E80FF91FEC56FF4F0083EC85FD85E35692
:205DC000FF4F51834083EC89FD89208181E090E00D8C02C0880F991F0A94E2F7282B20835A
:205DE00081E08F8FEA89FB8980818064808381E090E0DF91CF911F910F9108958F92AF9255
:205E0000BF92CF92DF92EF92FF920F931F9300D000D0EDB7FEB7319683E0ADB7BEB7119656
:205E20008C9387E0818385E0828381E0838384E497E062EA76E045EC50E024EC30E000EC19
:205E400010E0B1ECEB2EF12CA2ECCA2ED12CF6ECAF2EB12CE4E08E2E0E947E2C0F900F9056
:205E60000F900F901F910F91FF90EF90DF90CF90BF90AF908F900895CF93DF930E94B72918
:205E80000E94E30CC1ECDBE20E94A3092097E1F30E94C12BF9CFCF92DF92EF92FF920F9352
:205EA0001F93CF93DF937C016B018A01C0E0D0E00FC0D6016D916D01D701ED91FC91019012
:205EC000F081E02DC7010995C80FD91F015010400115110571F7CE01DF91CF911F910F91EB
:205EE000FF90EF90DF90CF900895DC01ED91FC910190F081E02D09950895EF92FF920F9343
:205F00001F938C01DC01ED91FC910190F081E02D6DE009957C01D801ED91FC910190F081FD
:205F2000E02DC8016AE009959C012E0D3F1DC9011F910F91FF90EF900895CF93DF93EC01E9
:205F40006115710519F420E030E00FC0DB010D900020E9F71197A61BB70BE881F981028060
:205F6000F381E02DAD0109959C01C901DF91CF9108954F925F927F928F929F92AF92BF92B9
:205F8000CF92DF92EF92FF920F931F93DF93CF93CDB7DEB7A1970FB6F894DEBF0FBECDBF5D
:205FA0002C01742ECB01223008F42AE019A231E2C32ED12CCC0EDD1E822E9924AA24BB2443
:205FC000672D752FA50194010E94A23179018A01C801B701A50194010E945C31472D461B14
:205FE0000894C108D1084A3014F4405D01C0495CF6014083E114F1040105110521F07E2C63
:206000005F2DC801DDCFC201B6010E949D2FA1960FB6F894DEBF0FBECDBFCF91DF911F9199
:206020000F91FF90EF90DF90CF90BF90AF909F908F907F905F904F900895DC012115310545
:2060400041F4ED91FC910190F081E02D642F099508950E94B92F0895EF92FF920F931F9396
:206060007C010E941D308C01C7010E947D2F9C01200F311FC9011F910F91FF90EF90089530
:20608000CF92DF92EF92FF920F931F936C01E62E9A01FF2400E010E0B801A7010E941D3069
:2060A0008C01C6010E947D2F080F191FC8011F910F91FF90EF90DF90CF900895CF92DF928B
:2060C000EF92FF920F931F93CF93DF93EC016A017B012115310541F4E881F9810190F0812C
:2060E000E02D642F09951FC02A303105D1F477FF17C0E881F9810190F081E02D6DE2099502
:206100008C0144275527BA014C195D096E097F09CE012AE00E94B92F9801280F391F04C037
:206120002AE00E94B92F9C01C901DF91CF911F910F91FF90EF90DF90CF900895CF92DF92F9
:20614000EF92FF920F931F936C017B019A010027F7FC0095102FB801A7010E945E308C0149
:20616000C6010E947D2F080F191FC8011F910F91FF90EF90DF90CF9008950E949D2F08951E
:20618000EF92FF920F931F937C010E949D2F8C01C7010E947D2F080F191FC8011F910F91A3
:2061A000FF90EF9008950F931F93CF93DF93EC018B016F5F7F4F888199810E9480280097F3
:2061C00011F480E005C0998388831B830A8381E0DF91CF911F910F910895CF93DF93EC0164
:2061E00088819981892B29F08A819B818617970760F4CE010E94D330882341F08C819D817E
:20620000892B19F4E881F981108281E0DF91CF910895CF93DF93EC0188819981009711F0FE
:206220000E94E827198218821D821C821B821A82DF91CF910895EF92FF920F931F93CF93CD
:20624000DF93EC017B018A01BA010E94ED30882321F4CE010E94093107C01D830C838881F4
:206260009981B7010E943402CE01DF91CF911F910F91FF90EF900895CF93DF93EC0119827E
:2062800018821B821A821D821C826115710551F0DB010D900020E9F71197A61BB70BAD016F
:2062A0000E941B31DF91CF910895FC01808191810E94E82708950895629FD001739FF001B3
:2062C000829FE00DF11D649FE00DF11D929FF00D839FF00D749FF00D659FF00D9927729F75
:2062E000B00DE11DF91F639FB00DE11DF91FBD01CF0111240895AA1BBB1B51E107C0AA1F39
:20630000BB1FA617B70710F0A61BB70B881F991F5A95A9F780959095BC01CD01089597FBC3
:20632000092E07260AD077FD04D0E5DF06D000201AF4709561957F4F0895F6F79095819581
:206340009F4F0895A1E21A2EAA1BBB1BFD010DC0AA1FBB1FEE1FFF1FA217B307E407F50759
:2063600020F0A21BB30BE40BF50B661F771F881F991F1A9469F760957095809590959B014B
:20638000AC01BD01CF01089597FB092E05260ED057FD04D0D7DF0AD0001C38F45095409599
:2063A000309521953F4F4F4F5F4F0895F6F790958095709561957F4F8F4F9F4F0895EE0F95
:2063C000FF1F0590F491E02D0994911106C0803219F089508550D0F708959927882708959A
:2063E0002F923F924F925F926F927F928F929F92AF92BF92CF92DF92EF92FF920F931F930B
:20640000CF93DF93CDB7DEB7CA1BDB0B0FB6F894DEBF0FBECDBF09942A88398848885F84BA
:206420006E847D848C849B84AA84B984C884DF80EE80FD800C811B81AA81B981CE0FD11DE0
:206440000FB6F894DEBF0FBECDBFED01089511E0CCEDD1E004C0FE010E94E1312296CE3DD5
:20646000D107C9F7F894FFCF5643433A00010101E80380006F0700000000B0046009C01241
:206480008025004B009600000000680E370EF00DF90D0E0E1F0E0000000041144B2FEE159D
:2064A000C415DD15EC130000000058164B2F000000000A224B2F00000000402B4B2FCA2DA8
:2064C000222EE42D772E872EDB2DFFFFFFFFFFFFFFFFFFFFFFFFFFFFFFFFFFFFFFFFFFFF0F
:2064E000FFFFFFFFFFFFFFFFFFFFFFFFFFFFFFFFFFFFFFFFFFFFFFFFFFFFFFFFFFFFFFFFBC
:20650000FFFFFFFFFFFFFFFFFFFFFFFFFFFFFFFFFFFFFFFFFFFFFFFFFFFFFFFFFFFFFFFF9B
:20652000FFFFFFFFFFFFFFFFFFFFFFFFFFFFFFFFFFFFFFFFFFFFFFFFFFFFFFFFFFFFFFFF7B
:20654000FFFFFFFFFFFFFFFFFFFFFFFFFFFFFFFFFFFFFFFFFFFFFFFFFFFFFFFFFFFFFFFF5B
:207000000C9434380C9451380C9451380C9451380C9451380C9451380C9451380C94513845
:207020000C9451380C9451380C9451380C9451380C9451380C9451380C9451380C94513808
:207040000C9451380C9451380C9451380C9451380C9451380C9451380C9451380C945138E8
:207060000C9451380C94513811241FBECFEFD8E0DEBFCDBF11E0A0E0B1E0E6EAFFE702C093
:2070800005900D92AA31B107D9F721E0AAE1B1E001C01D92A73CB207E1F70E94113F0C94C6
:2070A000D13F0C940038CF92DF92EF92FF921F93CF93DF9300D0CDB7DEB70E94B93EC12C0F
:2070C000D12C76011FEF40E850E06FEF70E087E491E00E94B43FAE014F5F5F4F60E870E014
:2070E00087E491E00E94BC3C89819A810097D1F0582F20E030E006C0F0E0E95BFE4F10834C
:207100002F5F3F4F422FE22FE50F480F47FFF4CFC701B6010E94E53E47E451E0C701B6015E
:207120000E94F33E80E8C80ED11CE11CF11CC11480E7D806E104F10431F60E94BB3E0F90F2
:207140000F90DF91CF911F91FF90EF90DF90CF900895A0E0B0E0EFEAF8E30C94793F0E94D9
:20716000BD3E8DE191E00E94383A8DEF93E00E94BB3F8C01883E43E0940710F009E010E0AC
:20718000E8012A96B12C84E6E82EF12C9AE0A92E2AE0C22ED12C21C0CE01B7010E94303F0B
:2071A000605D609312016A2D0E94243F805D80931301CE01B6010E94303F805D80931401D0
:2071C0008DE091E00E94523B892B21F40E945338BB24B3940E94C13E21970C171D07E0F214
:2071E000B11008C080E091E00E94523B892B11F40E94533880E090E0FC01259134912F3F6A
:207200003F4F11F0FC010995CDB7DEB7EAE00C94953F0F931F939B01AC01E0911A01F09143
:207220001B01225031094109510986819781A085B1850297A109B109281739074A075B0739
:2072400078F4A281B0E00E94663F8B019C0182899389A489B589080F191F2A1F3B1F03C058
:2072600000E010E09801B801C9011F910F9108950F931F93CF93DF93EC01E0911A01F09113
:207280001B01198218826C817D818E819F81613071058105910561F1068117812085318594
:2072A000601771078207930718F5611571058105910539F42081233021F466857785808981
:2072C0009189688779878A879B87611571058105910519F00E94093904C0668577858089C9
:2072E00091896C877D878E879F8720E030E002C021E030E0C901DF91CF911F910F910895D8
:20730000A4E0B0E0E6E8F9E30C947F3FE0911A01F0911B01623071058105910508F45CC0EC
:207320000681178120853185601771078207930708F052C02081223021F0233009F04CC05B
:2073400021C08B019C011127222733279801220F331F472F582F692F772782859385A485B1
:20736000B585480F591F6A1F7B1F02E010E0CE0101960E94673E892B79F509811A8120E01B
:2073800030E02EC08B019C010F771127222733279801220F331F220F331FAB01BC01A7E0D6
:2073A0007695679557954795AA95D1F782859385A485B585480F591F6A1F7B1F04E010E0AF
:2073C000CE0101960E94673E892B31F409811A812B813C813F7004C001E010E020E030E045
